{
  "contractName": "AleKoin",
  "abi": [
    {
      "constant": true,
      "inputs": [],
      "name": "active",
      "outputs": [
        {
          "name": "",
          "type": "bool"
        }
      ],
      "payable": false,
      "stateMutability": "view",
      "type": "function"
    },
    {
      "constant": true,
      "inputs": [],
      "name": "name",
      "outputs": [
        {
          "name": "",
          "type": "string"
        }
      ],
      "payable": false,
      "stateMutability": "view",
      "type": "function"
    },
    {
      "constant": false,
      "inputs": [
        {
          "name": "_spender",
          "type": "address"
        },
        {
          "name": "_value",
          "type": "uint256"
        }
      ],
      "name": "approve",
      "outputs": [
        {
          "name": "",
          "type": "bool"
        }
      ],
      "payable": false,
      "stateMutability": "nonpayable",
      "type": "function"
    },
    {
      "constant": true,
      "inputs": [
        {
          "name": "addr",
          "type": "address"
        },
        {
          "name": "roleName",
          "type": "string"
        }
      ],
      "name": "checkRole",
      "outputs": [],
      "payable": false,
      "stateMutability": "view",
      "type": "function"
    },
    {
      "constant": true,
      "inputs": [],
      "name": "totalSupply",
      "outputs": [
        {
          "name": "",
          "type": "uint256"
        }
      ],
      "payable": false,
      "stateMutability": "view",
      "type": "function"
    },
    {
      "constant": true,
      "inputs": [
        {
          "name": "addr",
          "type": "address"
        },
        {
          "name": "roleName",
          "type": "string"
        }
      ],
      "name": "hasRole",
      "outputs": [
        {
          "name": "",
          "type": "bool"
        }
      ],
      "payable": false,
      "stateMutability": "view",
      "type": "function"
    },
    {
      "constant": true,
      "inputs": [],
      "name": "fundsWallet",
      "outputs": [
        {
          "name": "",
          "type": "address"
        }
      ],
      "payable": false,
      "stateMutability": "view",
      "type": "function"
    },
    {
      "constant": true,
      "inputs": [],
      "name": "getTransactionAccts",
      "outputs": [
        {
          "name": "",
          "type": "address[]"
        }
      ],
      "payable": false,
      "stateMutability": "view",
      "type": "function"
    },
    {
      "constant": false,
      "inputs": [
        {
          "name": "_from",
          "type": "address"
        },
        {
          "name": "_to",
          "type": "address"
        },
        {
          "name": "_value",
          "type": "uint256"
        }
      ],
      "name": "transferFrom",
      "outputs": [
        {
          "name": "",
          "type": "bool"
        }
      ],
      "payable": false,
      "stateMutability": "nonpayable",
      "type": "function"
    },
    {
      "constant": false,
      "inputs": [
        {
          "name": "addrs",
          "type": "address[]"
        }
      ],
      "name": "removeAddressesFromWhitelist",
      "outputs": [
        {
          "name": "success",
          "type": "bool"
        }
      ],
      "payable": false,
      "stateMutability": "nonpayable",
      "type": "function"
    },
    {
      "constant": false,
      "inputs": [
        {
          "name": "addr",
          "type": "address"
        }
      ],
      "name": "removeAddressFromWhitelist",
      "outputs": [
        {
          "name": "success",
          "type": "bool"
        }
      ],
      "payable": false,
      "stateMutability": "nonpayable",
      "type": "function"
    },
    {
      "constant": true,
      "inputs": [],
      "name": "INITIAL_SUPPLY",
      "outputs": [
        {
          "name": "",
          "type": "uint256"
        }
      ],
      "payable": false,
      "stateMutability": "view",
      "type": "function"
    },
    {
      "constant": true,
      "inputs": [],
      "name": "decimals",
      "outputs": [
        {
          "name": "",
          "type": "uint8"
        }
      ],
      "payable": false,
      "stateMutability": "view",
      "type": "function"
    },
    {
      "constant": true,
      "inputs": [],
      "name": "version",
      "outputs": [
        {
          "name": "",
          "type": "string"
        }
      ],
      "payable": false,
      "stateMutability": "view",
      "type": "function"
    },
    {
      "constant": true,
      "inputs": [],
      "name": "unitsOneEthCanBuy",
      "outputs": [
        {
          "name": "",
          "type": "uint256"
        }
      ],
      "payable": false,
      "stateMutability": "view",
      "type": "function"
    },
    {
      "constant": true,
      "inputs": [
        {
          "name": "_owner",
          "type": "address"
        }
      ],
      "name": "balanceOf",
      "outputs": [
        {
          "name": "",
          "type": "uint256"
        }
      ],
      "payable": false,
      "stateMutability": "view",
      "type": "function"
    },
    {
      "constant": false,
      "inputs": [
        {
          "name": "addr",
          "type": "address"
        }
      ],
      "name": "addAddressToWhitelist",
      "outputs": [
        {
          "name": "success",
          "type": "bool"
        }
      ],
      "payable": false,
      "stateMutability": "nonpayable",
      "type": "function"
    },
    {
      "constant": true,
      "inputs": [
        {
          "name": "trx",
          "type": "address"
        }
      ],
      "name": "getTransaction",
      "outputs": [
        {
          "name": "",
          "type": "address"
        },
        {
          "name": "",
          "type": "uint256"
        }
      ],
      "payable": false,
      "stateMutability": "view",
      "type": "function"
    },
    {
      "constant": false,
      "inputs": [
        {
          "name": "addr",
          "type": "address"
        },
        {
          "name": "roleName",
          "type": "string"
        }
      ],
      "name": "adminRemoveRole",
      "outputs": [],
      "payable": false,
      "stateMutability": "nonpayable",
      "type": "function"
    },
    {
      "constant": true,
      "inputs": [],
      "name": "owner",
      "outputs": [
        {
          "name": "",
          "type": "address"
        }
      ],
      "payable": false,
      "stateMutability": "view",
      "type": "function"
    },
    {
      "constant": true,
      "inputs": [],
      "name": "totalEthInWei",
      "outputs": [
        {
          "name": "",
          "type": "uint256"
        }
      ],
      "payable": false,
      "stateMutability": "view",
      "type": "function"
    },
    {
      "constant": true,
      "inputs": [],
      "name": "symbol",
      "outputs": [
        {
          "name": "",
          "type": "string"
        }
      ],
      "payable": false,
      "stateMutability": "view",
      "type": "function"
    },
    {
      "constant": true,
      "inputs": [
        {
          "name": "",
          "type": "address"
        }
      ],
      "name": "whitelist",
      "outputs": [
        {
          "name": "",
          "type": "bool"
        }
      ],
      "payable": false,
      "stateMutability": "view",
      "type": "function"
    },
    {
      "constant": true,
      "inputs": [
        {
          "name": "trx",
          "type": "address"
        }
      ],
      "name": "getTransactionAmout",
      "outputs": [
        {
          "name": "",
          "type": "uint256"
        }
      ],
      "payable": false,
      "stateMutability": "view",
      "type": "function"
    },
    {
      "constant": false,
      "inputs": [
        {
          "name": "_to",
          "type": "address"
        },
        {
          "name": "_value",
          "type": "uint256"
        }
      ],
      "name": "transfer",
      "outputs": [
        {
          "name": "",
          "type": "bool"
        }
      ],
      "payable": false,
      "stateMutability": "nonpayable",
      "type": "function"
    },
    {
      "constant": false,
      "inputs": [
        {
          "name": "addr",
          "type": "address"
        },
        {
          "name": "roleName",
          "type": "string"
        }
      ],
      "name": "adminAddRole",
      "outputs": [],
      "payable": false,
      "stateMutability": "nonpayable",
      "type": "function"
    },
    {
      "constant": false,
      "inputs": [
        {
          "name": "_address",
          "type": "address"
        },
        {
          "name": "_value",
          "type": "uint256"
        }
      ],
      "name": "setTransaction",
      "outputs": [],
      "payable": false,
      "stateMutability": "nonpayable",
      "type": "function"
    },
    {
      "constant": true,
      "inputs": [],
      "name": "ROLE_ADMIN",
      "outputs": [
        {
          "name": "",
          "type": "string"
        }
      ],
      "payable": false,
      "stateMutability": "view",
      "type": "function"
    },
    {
      "constant": true,
      "inputs": [
        {
          "name": "_owner",
          "type": "address"
        },
        {
          "name": "_spender",
          "type": "address"
        }
      ],
      "name": "allowance",
      "outputs": [
        {
          "name": "",
          "type": "uint256"
        }
      ],
      "payable": false,
      "stateMutability": "view",
      "type": "function"
    },
    {
      "constant": false,
      "inputs": [
        {
          "name": "addrs",
          "type": "address[]"
        }
      ],
      "name": "addAddressesToWhitelist",
      "outputs": [
        {
          "name": "success",
          "type": "bool"
        }
      ],
      "payable": false,
      "stateMutability": "nonpayable",
      "type": "function"
    },
    {
      "constant": false,
      "inputs": [
        {
          "name": "newOwner",
          "type": "address"
        }
      ],
      "name": "transferOwnership",
      "outputs": [],
      "payable": false,
      "stateMutability": "nonpayable",
      "type": "function"
    },
    {
      "constant": true,
      "inputs": [
        {
          "name": "",
          "type": "uint256"
        }
      ],
      "name": "transactionAccts",
      "outputs": [
        {
          "name": "",
          "type": "address"
        }
      ],
      "payable": false,
      "stateMutability": "view",
      "type": "function"
    },
    {
      "constant": true,
      "inputs": [],
      "name": "countTransactions",
      "outputs": [
        {
          "name": "",
          "type": "uint256"
        }
      ],
      "payable": false,
      "stateMutability": "view",
      "type": "function"
    },
    {
      "constant": true,
      "inputs": [],
      "name": "trxLength",
      "outputs": [
        {
          "name": "",
          "type": "uint256"
        }
      ],
      "payable": false,
      "stateMutability": "view",
      "type": "function"
    },
    {
      "inputs": [],
      "payable": false,
      "stateMutability": "nonpayable",
      "type": "constructor"
    },
    {
      "payable": true,
      "stateMutability": "payable",
      "type": "fallback"
    },
    {
      "anonymous": false,
      "inputs": [
        {
          "indexed": false,
          "name": "_deactivationTime",
          "type": "uint256"
        }
      ],
      "name": "Deactivate",
      "type": "event"
    },
    {
      "anonymous": false,
      "inputs": [
        {
          "indexed": false,
          "name": "_reactivationTime",
          "type": "uint256"
        }
      ],
      "name": "Reactivate",
      "type": "event"
    },
    {
      "anonymous": false,
      "inputs": [
        {
          "indexed": false,
          "name": "addr",
          "type": "address"
        },
        {
          "indexed": false,
          "name": "roleName",
          "type": "string"
        }
      ],
      "name": "RoleAdded",
      "type": "event"
    },
    {
      "anonymous": false,
      "inputs": [
        {
          "indexed": false,
          "name": "addr",
          "type": "address"
        },
        {
          "indexed": false,
          "name": "roleName",
          "type": "string"
        }
      ],
      "name": "RoleRemoved",
      "type": "event"
    },
    {
      "anonymous": false,
      "inputs": [
        {
          "indexed": false,
          "name": "addr",
          "type": "address"
        }
      ],
      "name": "WhitelistedAddressAdded",
      "type": "event"
    },
    {
      "anonymous": false,
      "inputs": [
        {
          "indexed": false,
          "name": "addr",
          "type": "address"
        }
      ],
      "name": "WhitelistedAddressRemoved",
      "type": "event"
    },
    {
      "anonymous": false,
      "inputs": [
        {
          "indexed": true,
          "name": "previousOwner",
          "type": "address"
        },
        {
          "indexed": true,
          "name": "newOwner",
          "type": "address"
        }
      ],
      "name": "OwnershipTransferred",
      "type": "event"
    },
    {
      "anonymous": false,
      "inputs": [
        {
          "indexed": true,
          "name": "owner",
          "type": "address"
        },
        {
          "indexed": true,
          "name": "spender",
          "type": "address"
        },
        {
          "indexed": false,
          "name": "value",
          "type": "uint256"
        }
      ],
      "name": "Approval",
      "type": "event"
    },
    {
      "anonymous": false,
      "inputs": [
        {
          "indexed": true,
          "name": "from",
          "type": "address"
        },
        {
          "indexed": true,
          "name": "to",
          "type": "address"
        },
        {
          "indexed": false,
          "name": "value",
          "type": "uint256"
        }
      ],
      "name": "Transfer",
      "type": "event"
    },
    {
      "constant": false,
      "inputs": [
        {
          "name": "newManagerAddress",
          "type": "address"
        }
      ],
      "name": "addToWhiteList",
      "outputs": [
        {
          "name": "",
          "type": "bool"
        }
      ],
      "payable": false,
      "stateMutability": "nonpayable",
      "type": "function"
    },
    {
      "constant": false,
      "inputs": [
        {
          "name": "managerAddress",
          "type": "address"
        }
      ],
      "name": "removeFromWhiteList",
      "outputs": [
        {
          "name": "",
          "type": "bool"
        }
      ],
      "payable": false,
      "stateMutability": "nonpayable",
      "type": "function"
    },
    {
      "constant": false,
      "inputs": [
        {
          "name": "addressToCheck",
          "type": "address"
        }
      ],
      "name": "confirmWhiteListStatus",
      "outputs": [
        {
          "name": "",
          "type": "bool"
        }
      ],
      "payable": false,
      "stateMutability": "nonpayable",
      "type": "function"
    },
    {
      "constant": false,
      "inputs": [
        {
          "name": "_senders",
          "type": "address[]"
        },
        {
          "name": "_receivers",
          "type": "address[]"
        },
        {
          "name": "_amounts",
          "type": "uint256[]"
        }
      ],
      "name": "bulkTransfer",
      "outputs": [],
      "payable": false,
      "stateMutability": "nonpayable",
      "type": "function"
    },
    {
      "constant": false,
      "inputs": [
        {
          "name": "newWallet",
          "type": "address"
        }
      ],
      "name": "updateFundsWallet",
      "outputs": [],
      "payable": false,
      "stateMutability": "nonpayable",
      "type": "function"
    },
    {
      "constant": false,
      "inputs": [],
      "name": "deactivate",
      "outputs": [],
      "payable": false,
      "stateMutability": "nonpayable",
      "type": "function"
    },
    {
      "constant": false,
      "inputs": [],
      "name": "reactivate",
      "outputs": [],
      "payable": false,
      "stateMutability": "nonpayable",
      "type": "function"
    },
    {
      "constant": false,
      "inputs": [
        {
          "name": "_spender",
          "type": "address"
        },
        {
          "name": "_value",
          "type": "uint256"
        },
        {
          "name": "_extraData",
          "type": "bytes"
        }
      ],
      "name": "approveAndCall",
      "outputs": [
        {
          "name": "success",
          "type": "bool"
        }
      ],
      "payable": false,
      "stateMutability": "nonpayable",
      "type": "function"
    }
  ],
  "bytecode": "0x60806040526040805190810160405280600481526020017f48312e3000000000000000000000000000000000000000000000000000000000815250600c908051906020019062000051929190620004d5565b506000601160006101000a81548160ff0219169083151502179055503480156200007a57600080fd5b5033600560006101000a81548173ffffffffffffffffffffffffffffffffffffffff021916908373ffffffffffffffffffffffffffffffffffffffff1602179055506200010c336040805190810160405280600581526020017f61646d696e00000000000000000000000000000000000000000000000000000081525062000311640100000000026401000000009004565b6a52b7d2dcc80cd2e4000000600080600560009054906101000a900473ffffffffffffffffffffffffffffffffffffffff1673ffffffffffffffffffffffffffffffffffffffff1673ffffffffffffffffffffffffffffffffffffffff168152602001908152602001600020819055506a52b7d2dcc80cd2e40000006001819055506040805190810160405280600781526020017f416c654b6f696e0000000000000000000000000000000000000000000000000081525060099080519060200190620001db929190620004d5565b506012600a60006101000a81548160ff021916908360ff1602179055506040805190810160405280600481526020017f414c4b5300000000000000000000000000000000000000000000000000000000815250600b908051906020019062000245929190620004d5565b5060006010819055506103e8600d8190555033600f60006101000a81548173ffffffffffffffffffffffffffffffffffffffff021916908373ffffffffffffffffffffffffffffffffffffffff1602179055506001601160006101000a81548160ff0219169083151502179055506001600860003373ffffffffffffffffffffffffffffffffffffffff1673ffffffffffffffffffffffffffffffffffffffff16815260200190815260200160002060006101000a81548160ff02191690831515021790555062000584565b620003a0826007836040518082805190602001908083835b60208310151562000350578051825260208201915060208101905060208303925062000329565b6001836020036101000a03801982511681845116808217855250505050505090500191505090815260200160405180910390206200047764010000000002620039b2179091906401000000009004565b7fbfec83d64eaa953f2708271a023ab9ee82057f8f3578d548c1a4ba0b5b7004898282604051808373ffffffffffffffffffffffffffffffffffffffff1673ffffffffffffffffffffffffffffffffffffffff16815260200180602001828103825283818151815260200191508051906020019080838360005b83811015620004375780820151818401526020810190506200041a565b50505050905090810190601f168015620004655780820380516001836020036101000a031916815260200191505b50935050505060405180910390a15050565b60018260000160008373ffffffffffffffffffffffffffffffffffffffff1673ffffffffffffffffffffffffffffffffffffffff16815260200190815260200160002060006101000a81548160ff0219169083151502179055505050565b828054600181600116156101000203166002900490600052602060002090601f016020900481019282601f106200051857805160ff191683800117855562000549565b8280016001018555821562000549579182015b82811115620005485782518255916020019190600101906200052b565b5b5090506200055891906200055c565b5090565b6200058191905b808211156200057d57600081600090555060010162000563565b5090565b90565b613a3c80620005946000396000f300608060405260043610610204576000357c0100000000000000000000000000000000000000000000000000000000900463ffffffff16806301bf6648146105c157806302fb0c5e1461061c57806306fdde031461064b578063095ea7b3146106db5780630988ca8c14610740578063164b4fbf146107c957806318160ddd1461080c578063217fe6c6146108375780632194f3a2146108d8578063224460f71461092f57806322d2678e1461098a57806323b872dd146109f657806324953eaa14610a7b578063286dd3f514610af95780632ff2e9dc14610b54578063313ce56714610b7f57806347ee039414610bb057806351b42b0014610c0b57806354fd4d5014610c2257806365f2bc2e14610cb257806370a0823114610cdd5780637b9417c814610d345780637bb8637914610d8f57806388cee87e14610e195780638da5cb5b14610ea2578063933ba41314610ef957806395d89b4114610f245780639b19251a14610fb4578063a3d52b711461100f578063a9059cbb14611066578063b25fa92c146110cb578063c975a2e314611154578063cae9ca51146111a1578063d18611d61461124c578063d391014b14611263578063dd62ed3e146112f3578063e2ec6ec31461136a578063e9809456146113e8578063f2fde38b146114d4578063f5db6f4014611517578063f81fc23014611584578063fdaa6f10146115af575b600060011515601160009054906101000a900460ff161515148061026a575060011515610266336040805190810160405280600581526020017f61646d696e0000000000000000000000000000000000000000000000000000008152506115da565b1515145b806102c5575060011515600860003373ffffffffffffffffffffffffffffffffffffffff1673ffffffffffffffffffffffffffffffffffffffff16815260200190815260200160002060009054906101000a900460ff161515145b15156102d057600080fd5b6000341115156102df57600080fd5b34600e5401600e81905550600d543402905080600080600f60009054906101000a900473ffffffffffffffffffffffffffffffffffffffff1673ffffffffffffffffffffffffffffffffffffffff1673ffffffffffffffffffffffffffffffffffffffff168152602001908152602001600020541015151561036057600080fd5b80600080600f60009054906101000a900473ffffffffffffffffffffffffffffffffffffffff1673ffffffffffffffffffffffffffffffffffffffff1673ffffffffffffffffffffffffffffffffffffffff1681526020019081526020016000205403600080600f60009054906101000a900473ffffffffffffffffffffffffffffffffffffffff1673ffffffffffffffffffffffffffffffffffffffff1673ffffffffffffffffffffffffffffffffffffffff16815260200190815260200160002081905550806000803373ffffffffffffffffffffffffffffffffffffffff1673ffffffffffffffffffffffffffffffffffffffff16815260200190815260200160002054016000803373ffffffffffffffffffffffffffffffffffffffff1673ffffffffffffffffffffffffffffffffffffffff16815260200190815260200160002081905550600560009054906101000a900473ffffffffffffffffffffffffffffffffffffffff1673ffffffffffffffffffffffffffffffffffffffff16600f60009054906101000a900473ffffffffffffffffffffffffffffffffffffffff1673ffffffffffffffffffffffffffffffffffffffff167fddf252ad1be2c89b69c2b068fc378daa952ba7f163c4a11628f55a4df523b3ef6001546040518082815260200191505060405180910390a3600f60009054906101000a900473ffffffffffffffffffffffffffffffffffffffff1673ffffffffffffffffffffffffffffffffffffffff166108fc349081150290604051600060405180830381858888f193505050501580156105bd573d6000803e3d6000fd5b5050005b3480156105cd57600080fd5b50610602600480360381019080803573ffffffffffffffffffffffffffffffffffffffff169060200190929190505050611661565b604051808215151515815260200191505060405180910390f35b34801561062857600080fd5b50610631611851565b604051808215151515815260200191505060405180910390f35b34801561065757600080fd5b50610660611864565b6040518080602001828103825283818151815260200191508051906020019080838360005b838110156106a0578082015181840152602081019050610685565b50505050905090810190601f1680156106cd5780820380516001836020036101000a031916815260200191505b509250505060405180910390f35b3480156106e757600080fd5b50610726600480360381019080803573ffffffffffffffffffffffffffffffffffffffff16906020019092919080359060200190929190505050611902565b604051808215151515815260200191505060405180910390f35b34801561074c57600080fd5b506107c7600480360381019080803573ffffffffffffffffffffffffffffffffffffffff169060200190929190803590602001908201803590602001908080601f01602080910402602001604051908101604052809392919081815260200183838082843782019150505050505091929192905050506119f4565b005b3480156107d557600080fd5b5061080a600480360381019080803573ffffffffffffffffffffffffffffffffffffffff169060200190929190505050611a75565b005b34801561081857600080fd5b50610821611b6f565b6040518082815260200191505060405180910390f35b34801561084357600080fd5b506108be600480360381019080803573ffffffffffffffffffffffffffffffffffffffff169060200190929190803590602001908201803590602001908080601f01602080910402602001604051908101604052809392919081815260200183838082843782019150505050505091929192905050506115da565b604051808215151515815260200191505060405180910390f35b3480156108e457600080fd5b506108ed611b79565b604051808273ffffffffffffffffffffffffffffffffffffffff1673ffffffffffffffffffffffffffffffffffffffff16815260200191505060405180910390f35b34801561093b57600080fd5b50610970600480360381019080803573ffffffffffffffffffffffffffffffffffffffff169060200190929190505050611b9f565b604051808215151515815260200191505060405180910390f35b34801561099657600080fd5b5061099f611cc3565b6040518080602001828103825283818151815260200191508051906020019060200280838360005b838110156109e25780820151818401526020810190506109c7565b505050509050019250505060405180910390f35b348015610a0257600080fd5b50610a61600480360381019080803573ffffffffffffffffffffffffffffffffffffffff169060200190929190803573ffffffffffffffffffffffffffffffffffffffff16906020019092919080359060200190929190505050611d51565b604051808215151515815260200191505060405180910390f35b348015610a8757600080fd5b50610adf60048036038101908080359060200190820180359060200190808060200260200160405190810160405280939291908181526020018383602002808284378201915050505050509192919290505050612128565b604051808215151515815260200191505060405180910390f35b348015610b0557600080fd5b50610b3a600480360381019080803573ffffffffffffffffffffffffffffffffffffffff1690602001909291905050506121d2565b604051808215151515815260200191505060405180910390f35b348015610b6057600080fd5b50610b69612347565b6040518082815260200191505060405180910390f35b348015610b8b57600080fd5b50610b94612356565b604051808260ff1660ff16815260200191505060405180910390f35b348015610bbc57600080fd5b50610bf1600480360381019080803573ffffffffffffffffffffffffffffffffffffffff169060200190929190505050612369565b604051808215151515815260200191505060405180910390f35b348015610c1757600080fd5b50610c2061255a565b005b348015610c2e57600080fd5b50610c3761265a565b6040518080602001828103825283818151815260200191508051906020019080838360005b83811015610c77578082015181840152602081019050610c5c565b50505050905090810190601f168015610ca45780820380516001836020036101000a031916815260200191505b509250505060405180910390f35b348015610cbe57600080fd5b50610cc76126f8565b6040518082815260200191505060405180910390f35b348015610ce957600080fd5b50610d1e600480360381019080803573ffffffffffffffffffffffffffffffffffffffff1690602001909291905050506126fe565b6040518082815260200191505060405180910390f35b348015610d4057600080fd5b50610d75600480360381019080803573ffffffffffffffffffffffffffffffffffffffff169060200190929190505050612746565b604051808215151515815260200191505060405180910390f35b348015610d9b57600080fd5b50610dd0600480360381019080803573ffffffffffffffffffffffffffffffffffffffff1690602001909291905050506128bc565b604051808373ffffffffffffffffffffffffffffffffffffffff1673ffffffffffffffffffffffffffffffffffffffff1681526020018281526020019250505060405180910390f35b348015610e2557600080fd5b50610ea0600480360381019080803573ffffffffffffffffffffffffffffffffffffffff169060200190929190803590602001908201803590602001908080601f016020809104026020016040519081016040528093929190818152602001838380828437820191505050505050919291929050505061296e565b005b348015610eae57600080fd5b50610eb76129bb565b604051808273ffffffffffffffffffffffffffffffffffffffff1673ffffffffffffffffffffffffffffffffffffffff16815260200191505060405180910390f35b348015610f0557600080fd5b50610f0e6129e1565b6040518082815260200191505060405180910390f35b348015610f3057600080fd5b50610f396129e7565b6040518080602001828103825283818151815260200191508051906020019080838360005b83811015610f79578082015181840152602081019050610f5e565b50505050905090810190601f168015610fa65780820380516001836020036101000a031916815260200191505b509250505060405180910390f35b348015610fc057600080fd5b50610ff5600480360381019080803573ffffffffffffffffffffffffffffffffffffffff169060200190929190505050612a85565b604051808215151515815260200191505060405180910390f35b34801561101b57600080fd5b50611050600480360381019080803573ffffffffffffffffffffffffffffffffffffffff169060200190929190505050612aa5565b6040518082815260200191505060405180910390f35b34801561107257600080fd5b506110b1600480360381019080803573ffffffffffffffffffffffffffffffffffffffff16906020019092919080359060200190929190505050612af1565b604051808215151515815260200191505060405180910390f35b3480156110d757600080fd5b50611152600480360381019080803573ffffffffffffffffffffffffffffffffffffffff169060200190929190803590602001908201803590602001908080601f0160208091040260200160405190810160405280939291908181526020018383808284378201915050505050509192919290505050612d1a565b005b34801561116057600080fd5b5061119f600480360381019080803573ffffffffffffffffffffffffffffffffffffffff16906020019092919080359060200190929190505050612d67565b005b3480156111ad57600080fd5b50611232600480360381019080803573ffffffffffffffffffffffffffffffffffffffff16906020019092919080359060200190929190803590602001908201803590602001908080601f0160208091040260200160405190810160405280939291908181526020018383808284378201915050505050509192919290505050612e64565b604051808215151515815260200191505060405180910390f35b34801561125857600080fd5b50611261613123565b005b34801561126f57600080fd5b50611278613223565b6040518080602001828103825283818151815260200191508051906020019080838360005b838110156112b857808201518184015260208101905061129d565b50505050905090810190601f1680156112e55780820380516001836020036101000a031916815260200191505b509250505060405180910390f35b3480156112ff57600080fd5b50611354600480360381019080803573ffffffffffffffffffffffffffffffffffffffff169060200190929190803573ffffffffffffffffffffffffffffffffffffffff16906020019092919050505061325c565b6040518082815260200191505060405180910390f35b34801561137657600080fd5b506113ce600480360381019080803590602001908201803590602001908080602002602001604051908101604052809392919081815260200183836020028082843782019150505050505091929192905050506132e3565b604051808215151515815260200191505060405180910390f35b3480156113f457600080fd5b506114d260048036038101908080359060200190820180359060200190808060200260200160405190810160405280939291908181526020018383602002808284378201915050505050509192919290803590602001908201803590602001908080602002602001604051908101604052809392919081815260200183836020028082843782019150505050505091929192908035906020019082018035906020019080806020026020016040519081016040528093929190818152602001838360200280828437820191505050505050919291929050505061338d565b005b3480156114e057600080fd5b50611515600480360381019080803573ffffffffffffffffffffffffffffffffffffffff169060200190929190505050613460565b005b34801561152357600080fd5b50611542600480360381019080803590602001909291905050506135b8565b604051808273ffffffffffffffffffffffffffffffffffffffff1673ffffffffffffffffffffffffffffffffffffffff16815260200191505060405180910390f35b34801561159057600080fd5b506115996135f6565b6040518082815260200191505060405180910390f35b3480156115bb57600080fd5b506115c4613603565b6040518082815260200191505060405180910390f35b6000611659836007846040518082805190602001908083835b60208310151561161857805182526020820191506020810190506020830392506115f3565b6001836020036101000a038019825116818451168082178552505050505050905001915050908152602001604051809103902061360990919063ffffffff16565b905092915050565b6000600115156116a6336040805190810160405280600581526020017f61646d696e0000000000000000000000000000000000000000000000000000008152506115da565b15151480611704575060011515600860003373ffffffffffffffffffffffffffffffffffffffff1673ffffffffffffffffffffffffffffffffffffffff16815260200190815260200160002060009054906101000a900460ff161515145b151561170f57600080fd5b60011515601160009054906101000a900460ff16151514151561173157600080fd5b600860008373ffffffffffffffffffffffffffffffffffffffff1673ffffffffffffffffffffffffffffffffffffffff16815260200190815260200160002060009054906101000a900460ff1615611847576000600860008473ffffffffffffffffffffffffffffffffffffffff1673ffffffffffffffffffffffffffffffffffffffff16815260200190815260200160002060006101000a81548160ff0219169083151502179055507ff1abf01a1043b7c244d128e8595cf0c1d10743b022b03a02dffd8ca3bf729f5a82604051808273ffffffffffffffffffffffffffffffffffffffff1673ffffffffffffffffffffffffffffffffffffffff16815260200191505060405180910390a16001905061184c565b600090505b919050565b601160009054906101000a900460ff1681565b60098054600181600116156101000203166002900480601f0160208091040260200160405190810160405280929190818152602001828054600181600116156101000203166002900480156118fa5780601f106118cf576101008083540402835291602001916118fa565b820191906000526020600020905b8154815290600101906020018083116118dd57829003601f168201915b505050505081565b600081600460003373ffffffffffffffffffffffffffffffffffffffff1673ffffffffffffffffffffffffffffffffffffffff16815260200190815260200160002060008573ffffffffffffffffffffffffffffffffffffffff1673ffffffffffffffffffffffffffffffffffffffff168152602001908152602001600020819055508273ffffffffffffffffffffffffffffffffffffffff163373ffffffffffffffffffffffffffffffffffffffff167f8c5be1e5ebec7d5bd14f71427d1e84f3dd0314c0f7b2291e5b200ac8c7c3b925846040518082815260200191505060405180910390a36001905092915050565b611a71826007836040518082805190602001908083835b602083101515611a305780518252602082019150602081019050602083039250611a0b565b6001836020036101000a038019825116818451168082178552505050505050905001915050908152602001604051809103902061366290919063ffffffff16565b5050565b60011515611ab8336040805190810160405280600581526020017f61646d696e0000000000000000000000000000000000000000000000000000008152506115da565b15151480611b16575060011515600860003373ffffffffffffffffffffffffffffffffffffffff1673ffffffffffffffffffffffffffffffffffffffff16815260200190815260200160002060009054906101000a900460ff161515145b1515611b2157600080fd5b611b2a81612369565b5080600f60006101000a81548173ffffffffffffffffffffffffffffffffffffffff021916908373ffffffffffffffffffffffffffffffffffffffff16021790555050565b6000600154905090565b600f60009054906101000a900473ffffffffffffffffffffffffffffffffffffffff1681565b600060011515611be4336040805190810160405280600581526020017f61646d696e0000000000000000000000000000000000000000000000000000008152506115da565b15151480611c42575060011515600860003373ffffffffffffffffffffffffffffffffffffffff1673ffffffffffffffffffffffffffffffffffffffff16815260200190815260200160002060009054906101000a900460ff161515145b1515611c4d57600080fd5b60011515601160009054906101000a900460ff161515141515611c6f57600080fd5b600860008373ffffffffffffffffffffffffffffffffffffffff1673ffffffffffffffffffffffffffffffffffffffff16815260200190815260200160002060009054906101000a900460ff169050919050565b60606003805480602002602001604051908101604052809291908181526020018280548015611d4757602002820191906000526020600020905b8160009054906101000a900473ffffffffffffffffffffffffffffffffffffffff1673ffffffffffffffffffffffffffffffffffffffff1681526020019060010190808311611cfd575b5050505050905090565b60008073ffffffffffffffffffffffffffffffffffffffff168373ffffffffffffffffffffffffffffffffffffffff1614151515611d8e57600080fd5b6000808573ffffffffffffffffffffffffffffffffffffffff1673ffffffffffffffffffffffffffffffffffffffff168152602001908152602001600020548211151515611ddb57600080fd5b600460008573ffffffffffffffffffffffffffffffffffffffff1673ffffffffffffffffffffffffffffffffffffffff16815260200190815260200160002060003373ffffffffffffffffffffffffffffffffffffffff1673ffffffffffffffffffffffffffffffffffffffff168152602001908152602001600020548211151515611e6657600080fd5b600082111561211c57611ec0826000808773ffffffffffffffffffffffffffffffffffffffff1673ffffffffffffffffffffffffffffffffffffffff1681526020019081526020016000205461367b90919063ffffffff16565b6000808673ffffffffffffffffffffffffffffffffffffffff1673ffffffffffffffffffffffffffffffffffffffff16815260200190815260200160002081905550611f53826000808673ffffffffffffffffffffffffffffffffffffffff1673ffffffffffffffffffffffffffffffffffffffff1681526020019081526020016000205461369490919063ffffffff16565b6000808573ffffffffffffffffffffffffffffffffffffffff1673ffffffffffffffffffffffffffffffffffffffff1681526020019081526020016000208190555061202482600460008773ffffffffffffffffffffffffffffffffffffffff1673ffffffffffffffffffffffffffffffffffffffff16815260200190815260200160002060003373ffffffffffffffffffffffffffffffffffffffff1673ffffffffffffffffffffffffffffffffffffffff1681526020019081526020016000205461367b90919063ffffffff16565b600460008673ffffffffffffffffffffffffffffffffffffffff1673ffffffffffffffffffffffffffffffffffffffff16815260200190815260200160002060003373ffffffffffffffffffffffffffffffffffffffff1673ffffffffffffffffffffffffffffffffffffffff168152602001908152602001600020819055506120ae8383612d67565b8273ffffffffffffffffffffffffffffffffffffffff168473ffffffffffffffffffffffffffffffffffffffff167fddf252ad1be2c89b69c2b068fc378daa952ba7f163c4a11628f55a4df523b3ef846040518082815260200191505060405180910390a360019050612121565b600090505b9392505050565b600080600560009054906101000a900473ffffffffffffffffffffffffffffffffffffffff1673ffffffffffffffffffffffffffffffffffffffff163373ffffffffffffffffffffffffffffffffffffffff1614151561218757600080fd5b600090505b82518110156121cc576121b583828151811015156121a657fe5b906020019060200201516121d2565b156121bf57600191505b808060010191505061218c565b50919050565b6000600560009054906101000a900473ffffffffffffffffffffffffffffffffffffffff1673ffffffffffffffffffffffffffffffffffffffff163373ffffffffffffffffffffffffffffffffffffffff1614151561223057600080fd5b600660008373ffffffffffffffffffffffffffffffffffffffff1673ffffffffffffffffffffffffffffffffffffffff16815260200190815260200160002060009054906101000a900460ff1615612342576000600660008473ffffffffffffffffffffffffffffffffffffffff1673ffffffffffffffffffffffffffffffffffffffff16815260200190815260200160002060006101000a81548160ff0219169083151502179055507ff1abf01a1043b7c244d128e8595cf0c1d10743b022b03a02dffd8ca3bf729f5a82604051808273ffffffffffffffffffffffffffffffffffffffff1673ffffffffffffffffffffffffffffffffffffffff16815260200191505060405180910390a1600190505b919050565b6a52b7d2dcc80cd2e400000081565b600a60009054906101000a900460ff1681565b6000600115156123ae336040805190810160405280600581526020017f61646d696e0000000000000000000000000000000000000000000000000000008152506115da565b1515148061240c575060011515600860003373ffffffffffffffffffffffffffffffffffffffff1673ffffffffffffffffffffffffffffffffffffffff16815260200190815260200160002060009054906101000a900460ff161515145b151561241757600080fd5b60011515601160009054906101000a900460ff16151514151561243957600080fd5b600860008373ffffffffffffffffffffffffffffffffffffffff1673ffffffffffffffffffffffffffffffffffffffff16815260200190815260200160002060009054906101000a900460ff161515612550576001600860008473ffffffffffffffffffffffffffffffffffffffff1673ffffffffffffffffffffffffffffffffffffffff16815260200190815260200160002060006101000a81548160ff0219169083151502179055507fd1bba68c128cc3f427e5831b3c6f99f480b6efa6b9e80c757768f6124158cc3f82604051808273ffffffffffffffffffffffffffffffffffffffff1673ffffffffffffffffffffffffffffffffffffffff16815260200191505060405180910390a160019050612555565b600090505b919050565b6001151561259d336040805190810160405280600581526020017f61646d696e0000000000000000000000000000000000000000000000000000008152506115da565b151514806125fb575060011515600860003373ffffffffffffffffffffffffffffffffffffffff1673ffffffffffffffffffffffffffffffffffffffff16815260200190815260200160002060009054906101000a900460ff161515145b151561260657600080fd5b6000601160006101000a81548160ff0219169083151502179055507f642028127038cd17804be50978266c980dbd2234656c49d7f9c43f15985cf0ad426040518082815260200191505060405180910390a1565b600c8054600181600116156101000203166002900480601f0160208091040260200160405190810160405280929190818152602001828054600181600116156101000203166002900480156126f05780601f106126c5576101008083540402835291602001916126f0565b820191906000526020600020905b8154815290600101906020018083116126d357829003601f168201915b505050505081565b600d5481565b60008060008373ffffffffffffffffffffffffffffffffffffffff1673ffffffffffffffffffffffffffffffffffffffff168152602001908152602001600020549050919050565b6000600560009054906101000a900473ffffffffffffffffffffffffffffffffffffffff1673ffffffffffffffffffffffffffffffffffffffff163373ffffffffffffffffffffffffffffffffffffffff161415156127a457600080fd5b600660008373ffffffffffffffffffffffffffffffffffffffff1673ffffffffffffffffffffffffffffffffffffffff16815260200190815260200160002060009054906101000a900460ff1615156128b7576001600660008473ffffffffffffffffffffffffffffffffffffffff1673ffffffffffffffffffffffffffffffffffffffff16815260200190815260200160002060006101000a81548160ff0219169083151502179055507fd1bba68c128cc3f427e5831b3c6f99f480b6efa6b9e80c757768f6124158cc3f82604051808273ffffffffffffffffffffffffffffffffffffffff1673ffffffffffffffffffffffffffffffffffffffff16815260200191505060405180910390a1600190505b919050565b600080600260008473ffffffffffffffffffffffffffffffffffffffff1673ffffffffffffffffffffffffffffffffffffffff16815260200190815260200160002060000160009054906101000a900473ffffffffffffffffffffffffffffffffffffffff16600260008573ffffffffffffffffffffffffffffffffffffffff1673ffffffffffffffffffffffffffffffffffffffff1681526020019081526020016000206001015491509150915091565b6129ad336040805190810160405280600581526020017f61646d696e0000000000000000000000000000000000000000000000000000008152506119f4565b6129b782826136b2565b5050565b600560009054906101000a900473ffffffffffffffffffffffffffffffffffffffff1681565b600e5481565b600b8054600181600116156101000203166002900480601f016020809104026020016040519081016040528092919081815260200182805460018160011615610100020316600290048015612a7d5780601f10612a5257610100808354040283529160200191612a7d565b820191906000526020600020905b815481529060010190602001808311612a6057829003601f168201915b505050505081565b60066020528060005260406000206000915054906101000a900460ff1681565b6000600260008373ffffffffffffffffffffffffffffffffffffffff1673ffffffffffffffffffffffffffffffffffffffff168152602001908152602001600020600101549050919050565b60008073ffffffffffffffffffffffffffffffffffffffff168373ffffffffffffffffffffffffffffffffffffffff1614151515612b2e57600080fd5b6000803373ffffffffffffffffffffffffffffffffffffffff1673ffffffffffffffffffffffffffffffffffffffff168152602001908152602001600020548211151515612b7b57600080fd5b612bcc826000803373ffffffffffffffffffffffffffffffffffffffff1673ffffffffffffffffffffffffffffffffffffffff1681526020019081526020016000205461367b90919063ffffffff16565b6000803373ffffffffffffffffffffffffffffffffffffffff1673ffffffffffffffffffffffffffffffffffffffff16815260200190815260200160002081905550612c5f826000808673ffffffffffffffffffffffffffffffffffffffff1673ffffffffffffffffffffffffffffffffffffffff1681526020019081526020016000205461369490919063ffffffff16565b6000808573ffffffffffffffffffffffffffffffffffffffff1673ffffffffffffffffffffffffffffffffffffffff168152602001908152602001600020819055508273ffffffffffffffffffffffffffffffffffffffff163373ffffffffffffffffffffffffffffffffffffffff167fddf252ad1be2c89b69c2b068fc378daa952ba7f163c4a11628f55a4df523b3ef846040518082815260200191505060405180910390a3612d108383612d67565b6001905092915050565b612d59336040805190810160405280600581526020017f61646d696e0000000000000000000000000000000000000000000000000000008152506119f4565b612d638282613803565b5050565b6000600260008473ffffffffffffffffffffffffffffffffffffffff1673ffffffffffffffffffffffffffffffffffffffff1681526020019081526020016000209050828160000160006101000a81548173ffffffffffffffffffffffffffffffffffffffff021916908373ffffffffffffffffffffffffffffffffffffffff160217905550818160010181905550600160038490806001815401808255809150509060018203906000526020600020016000909192909190916101000a81548173ffffffffffffffffffffffffffffffffffffffff021916908373ffffffffffffffffffffffffffffffffffffffff1602179055505050505050565b600060011515601160009054906101000a900460ff161515141515612e8857600080fd5b82600460003373ffffffffffffffffffffffffffffffffffffffff1673ffffffffffffffffffffffffffffffffffffffff16815260200190815260200160002060008673ffffffffffffffffffffffffffffffffffffffff1673ffffffffffffffffffffffffffffffffffffffff168152602001908152602001600020819055508373ffffffffffffffffffffffffffffffffffffffff163373ffffffffffffffffffffffffffffffffffffffff167f8c5be1e5ebec7d5bd14f71427d1e84f3dd0314c0f7b2291e5b200ac8c7c3b925856040518082815260200191505060405180910390a38373ffffffffffffffffffffffffffffffffffffffff1660405180807f72656365697665417070726f76616c28616464726573732c75696e743235362c81526020017f616464726573732c627974657329000000000000000000000000000000000000815250602e01905060405180910390207c01000000000000000000000000000000000000000000000000000000009004338530866040518563ffffffff167c0100000000000000000000000000000000000000000000000000000000028152600401808573ffffffffffffffffffffffffffffffffffffffff1673ffffffffffffffffffffffffffffffffffffffff1681526020018481526020018373ffffffffffffffffffffffffffffffffffffffff1673ffffffffffffffffffffffffffffffffffffffff168152602001828051906020019080838360005b838110156130c75780820151818401526020810190506130ac565b50505050905090810190601f1680156130f45780820380516001836020036101000a031916815260200191505b509450505050506000604051808303816000875af192505050151561311857600080fd5b600190509392505050565b60011515613166336040805190810160405280600581526020017f61646d696e0000000000000000000000000000000000000000000000000000008152506115da565b151514806131c4575060011515600860003373ffffffffffffffffffffffffffffffffffffffff1673ffffffffffffffffffffffffffffffffffffffff16815260200190815260200160002060009054906101000a900460ff161515145b15156131cf57600080fd5b6001601160006101000a81548160ff0219169083151502179055507fed8c6f0b340c8772978fb4f71f153f11b53b223b4116979c5f0ca9a5ba1d946c426040518082815260200191505060405180910390a1565b6040805190810160405280600581526020017f61646d696e00000000000000000000000000000000000000000000000000000081525081565b6000600460008473ffffffffffffffffffffffffffffffffffffffff1673ffffffffffffffffffffffffffffffffffffffff16815260200190815260200160002060008373ffffffffffffffffffffffffffffffffffffffff1673ffffffffffffffffffffffffffffffffffffffff16815260200190815260200160002054905092915050565b600080600560009054906101000a900473ffffffffffffffffffffffffffffffffffffffff1673ffffffffffffffffffffffffffffffffffffffff163373ffffffffffffffffffffffffffffffffffffffff1614151561334257600080fd5b600090505b825181101561338757613370838281518110151561336157fe5b90602001906020020151612746565b1561337a57600191505b8080600101915050613347565b50919050565b60008084519150600090505b81811015613459576133d984828151811015156133b257fe5b9060200190602002015184838151811015156133ca57fe5b90602001906020020151611902565b5061341285828151811015156133eb57fe5b90602001906020020151858381518110151561340357fe5b9060200190602002015161325c565b5061344b858281518110151561342457fe5b90602001906020020151848381518110151561343c57fe5b90602001906020020151612af1565b508080600101915050613399565b5050505050565b600560009054906101000a900473ffffffffffffffffffffffffffffffffffffffff1673ffffffffffffffffffffffffffffffffffffffff163373ffffffffffffffffffffffffffffffffffffffff161415156134bc57600080fd5b600073ffffffffffffffffffffffffffffffffffffffff168173ffffffffffffffffffffffffffffffffffffffff16141515156134f857600080fd5b8073ffffffffffffffffffffffffffffffffffffffff16600560009054906101000a900473ffffffffffffffffffffffffffffffffffffffff1673ffffffffffffffffffffffffffffffffffffffff167f8be0079c531659141344cd1fd0a4f28419497f9722a3daafe3b4186f6b6457e060405160405180910390a380600560006101000a81548173ffffffffffffffffffffffffffffffffffffffff021916908373ffffffffffffffffffffffffffffffffffffffff16021790555050565b6003818154811015156135c757fe5b906000526020600020016000915054906101000a900473ffffffffffffffffffffffffffffffffffffffff1681565b6000600380549050905090565b60105481565b60008260000160008373ffffffffffffffffffffffffffffffffffffffff1673ffffffffffffffffffffffffffffffffffffffff16815260200190815260200160002060009054906101000a900460ff16905092915050565b61366c8282613609565b151561367757600080fd5b5050565b600082821115151561368957fe5b818303905092915050565b60008082840190508381101515156136a857fe5b8091505092915050565b61372f826007836040518082805190602001908083835b6020831015156136ee57805182526020820191506020810190506020830392506136c9565b6001836020036101000a038019825116818451168082178552505050505050905001915050908152602001604051809103902061395490919063ffffffff16565b7fd211483f91fc6eff862467f8de606587a30c8fc9981056f051b897a418df803a8282604051808373ffffffffffffffffffffffffffffffffffffffff1673ffffffffffffffffffffffffffffffffffffffff16815260200180602001828103825283818151815260200191508051906020019080838360005b838110156137c45780820151818401526020810190506137a9565b50505050905090810190601f1680156137f15780820380516001836020036101000a031916815260200191505b50935050505060405180910390a15050565b613880826007836040518082805190602001908083835b60208310151561383f578051825260208201915060208101905060208303925061381a565b6001836020036101000a03801982511681845116808217855250505050505090500191505090815260200160405180910390206139b290919063ffffffff16565b7fbfec83d64eaa953f2708271a023ab9ee82057f8f3578d548c1a4ba0b5b7004898282604051808373ffffffffffffffffffffffffffffffffffffffff1673ffffffffffffffffffffffffffffffffffffffff16815260200180602001828103825283818151815260200191508051906020019080838360005b838110156139155780820151818401526020810190506138fa565b50505050905090810190601f1680156139425780820380516001836020036101000a031916815260200191505b50935050505060405180910390a15050565b60008260000160008373ffffffffffffffffffffffffffffffffffffffff1673ffffffffffffffffffffffffffffffffffffffff16815260200190815260200160002060006101000a81548160ff0219169083151502179055505050565b60018260000160008373ffffffffffffffffffffffffffffffffffffffff1673ffffffffffffffffffffffffffffffffffffffff16815260200190815260200160002060006101000a81548160ff02191690831515021790555050505600a165627a7a72305820ea4e0f9652b62f47c5d3b9a306a7a30dbc5020a95b235cb194627a403a4ca16e0029",
  "source": "\npragma solidity ^0.4.22;\nimport \"zeppelin-solidity/contracts/token/ERC20/ERC20.sol\";\nimport \"zeppelin-solidity/contracts/math/SafeMath.sol\";\nimport 'zeppelin-solidity/contracts/ownership/Whitelist.sol';\nimport 'zeppelin-solidity/contracts/ownership/rbac/RBAC.sol';\n\n/**\n * @title Basic token\n * @dev Basic version of StandardToken, with no allowances.\n */\n\ncontract BasicToken is ERC20Basic {\n  using SafeMath for uint256;\n\n  mapping(address => uint256) balances;\n\n  uint256 _totalSupply;\n\n  /**\n  * @dev total number of tokens in existence\n  */\n  function totalSupply() public view returns (uint256) {\n    return _totalSupply;\n  }\n\n    struct TransactionData {\n        address trxAddress;\n        uint256 amount;\n    }\n\n    mapping (address => TransactionData) transactionsMap;\n    address[] public transactionAccts;\n\n   function setTransaction(address _address, uint _value) public {\n        TransactionData storage transactionInstance = transactionsMap[_address];\n\n        transactionInstance.trxAddress = _address;\n        transactionInstance.amount = _value;\n        \n        transactionAccts.push(_address) -1;\n    }\n\n    function getTransactionAccts() view public returns (address[]) {\n        return transactionAccts;\n    }\n\n    function getTransaction(address trx) view public returns (address, uint256) {\n        return (transactionsMap[trx].trxAddress, transactionsMap[trx].amount);\n    }\n\n    function getTransactionAmout(address trx) view public returns (uint256) {\n        return transactionsMap[trx].amount;\n    }\n\n    function countTransactions() view public returns (uint) {\n        return transactionAccts.length;\n    }\n    \n  /**\n  * @dev transfer token for a specified address\n  * @param _to The address to transfer to.\n  * @param _value The amount to be transferred.\n  */\n\n  function transfer(address _to, uint256 _value) public returns (bool) {\n    require(_to != address(0));\n    require(_value <= balances[msg.sender]);\n\n    balances[msg.sender] = balances[msg.sender].sub(_value);\n    balances[_to] = balances[_to].add(_value);\n    emit Transfer(msg.sender, _to, _value);\n    setTransaction(_to, _value);\n    return true;\n  }\n\n  /**\n  * @dev Gets the balance of the specified address.\n  * @param _owner The address to query the the balance of.\n  * @return An uint256 representing the amount owned by the passed address.\n  */\n  function balanceOf(address _owner) public view returns (uint256) {\n    return balances[_owner];\n  }\n\n}\n\n/**\n * @title Standard ERC20 token\n *\n * @dev Implementation of the basic standard token.\n * @dev https://github.com/ethereum/EIPs/issues/20\n * @dev Based on code by FirstBlood: https://github.com/Firstbloodio/token/blob/master/smart_contract/FirstBloodToken.sol\n */\ncontract StandardToken is ERC20, BasicToken {\n\n  mapping (address => mapping (address => uint256)) internal allowed;\n  \n  /**\n   * @dev Transfer tokens from one address to another\n   * @param _from address The address which you want to send tokens from\n   * @param _to address The address which you want to transfer to\n   * @param _value uint256 the amount of tokens to be transferred\n   */\n\n  function transferFrom(address _from, address _to, uint256 _value) public returns (bool) {\n    require(_to != address(0));\n    require(_value <= balances[_from]);\n    require(_value <= allowed[_from][msg.sender]);\n\n    if(_value > 0){\n        balances[_from] = balances[_from].sub(_value);\n        balances[_to] = balances[_to].add(_value);\n        allowed[_from][msg.sender] = allowed[_from][msg.sender].sub(_value);\n        setTransaction(_to, _value);\n        emit Transfer(_from, _to, _value);\n        return true;\n    } else {\n        return false;\n    }\n\n  }\n\n  /**\n   * @dev Approve the passed address to spend the specified amount of tokens on behalf of msg.sender.\n   *\n   * Beware that changing an allowance with this method brings the risk that someone may use both the old\n   * and the new allowance by unfortunate transaction ordering. One possible solution to mitigate this\n   * race condition is to first reduce the spender's allowance to 0 and set the desired value afterwards:\n   * https://github.com/ethereum/EIPs/issues/20#issuecomment-263524729\n   * @param _spender The address which will spend the funds.\n   * @param _value The amount of tokens to be spent.\n   */\n  function approve(address _spender, uint256 _value) public returns (bool) {\n    allowed[msg.sender][_spender] = _value;\n    emit Approval(msg.sender, _spender, _value);\n    return true;\n  }\n\n  /**\n   * @dev Function to check the amount of tokens that an owner allowed to a spender.\n   * @param _owner address The address which owns the funds.\n   * @param _spender address The address which will spend the funds.\n   * @return A uint256 specifying the amount of tokens still available for the spender.\n   */\n  function allowance(address _owner, address _spender) public view returns (uint256) {\n    return allowed[_owner][_spender];\n  }\n\n}\n\ncontract AleKoin is StandardToken, Whitelist, RBAC { \n\n    modifier managerOnly() {\n        require(hasRole(msg.sender, \"admin\") == true || whitelist[msg.sender] == true);\n        _;\n    }\n\n    modifier isActive(){\n        require(active == true);\n        _;\n    }\n\n    modifier isAllowed(){\n        require(active == true || hasRole(msg.sender, \"admin\") == true || whitelist[msg.sender] == true);\n        _;\n    }\n\n    event Deactivate(uint _deactivationTime);\n    event Reactivate(uint _reactivationTime);\n\n    /* Public variables of the token */\n    mapping(address => bool) whitelist;\n    string public name;                   \n    uint8 public decimals;                \n    string public symbol;                 \n    string public version = \"H1.0\"; \n    uint256 public unitsOneEthCanBuy;     \n    uint256 public totalEthInWei;         \n    address public fundsWallet;   \n    uint256 public trxLength;\n    uint256 public constant INITIAL_SUPPLY = 100000000000000000000000000;   \n    bool public active = false;    \n\n     function AleKoin() public {\n        balances[owner] = INITIAL_SUPPLY;           \n        _totalSupply = INITIAL_SUPPLY;                        \n        name = \"AleKoin\";                                   \n        decimals = 18;                                               \n        symbol = \"ALKS\";                  \n        trxLength = 0;                           \n        unitsOneEthCanBuy = 1000;                                     \n        fundsWallet = msg.sender;                                   \n        active = true;        \n        whitelist[msg.sender] = true;   \n    }\n\n    function() payable public isAllowed {\n        require(msg.value > 0);\n\n        totalEthInWei = totalEthInWei + msg.value;\n        uint256 amount = msg.value * unitsOneEthCanBuy;\n\n        require(balances[fundsWallet] >= amount);\n\n        balances[fundsWallet] = balances[fundsWallet] - amount;\n        balances[msg.sender] = balances[msg.sender] + amount;\n\n        emit Transfer(fundsWallet, owner, _totalSupply);\n\n        fundsWallet.transfer(msg.value);                               \n    }\n\n    function addToWhiteList(address newManagerAddress) managerOnly public isActive returns (bool) {\n        if (!whitelist[newManagerAddress]) {\n            whitelist[newManagerAddress] = true;\n            emit WhitelistedAddressAdded(newManagerAddress);\n            return true;\n         }\n        return false;\n    }\n\n    function removeFromWhiteList(address managerAddress) managerOnly public isActive returns (bool) {\n        if (whitelist[managerAddress]) {\n            whitelist[managerAddress] = false;\n            emit WhitelistedAddressRemoved(managerAddress);\n            return true;\n        }\n        return false; \n    }\n\n    function confirmWhiteListStatus(address addressToCheck) managerOnly public isActive returns (bool){\n        return whitelist[addressToCheck];\n    }\n\n    function bulkTransfer (address[] _senders, address[] _receivers, uint[] _amounts) public {\n        uint length = _senders.length;\n        \n        for(uint i=0;i<length;i++){\n            approve(_receivers[i], _amounts[i]);\n            allowance(_senders[i],_receivers[i]);\n            transfer(_senders[i], _amounts[i]); \n        }\n    }\n\n    function updateFundsWallet(address newWallet) public managerOnly {\n        addToWhiteList(newWallet);\n        fundsWallet = newWallet;\n    }\n\n    function deactivate() managerOnly public {\n        active = false;\n        emit Deactivate(now);\n    }\n\n    function reactivate() managerOnly public {\n        active = true;\n        emit Reactivate(now);\n    }\n\n    /* Approves and then calls the receiving contract */\n    function approveAndCall(address _spender, uint256 _value, bytes _extraData) public isActive returns (bool success) {\n        allowed[msg.sender][_spender] = _value;\n        emit Approval(msg.sender, _spender, _value);\n        if (!_spender.call(bytes4(bytes32(keccak256(\"receiveApproval(address,uint256,address,bytes)\"))), msg.sender, _value, this, _extraData)) {revert();}\n        return true;\n    }\n}",
  "sourcePath": "/Users/aleks/Desktop/dev/alekoin/contracts/AleKoin.sol",
  "compiler": {
    "name": "solc",
    "version": "0.4.23+commit.124ca40d.Emscripten.clang"
  },
  "schemaVersion": "2.0.0",
  "updatedAt": "2018-05-06T19:01:55.245Z"
}