{
  "contractName": "AleKoin",
  "abi": [
    {
      "constant": true,
      "inputs": [],
      "name": "active",
      "outputs": [
        {
          "name": "",
          "type": "bool"
        }
      ],
      "payable": false,
      "stateMutability": "view",
      "type": "function"
    },
    {
      "constant": true,
      "inputs": [],
      "name": "name",
      "outputs": [
        {
          "name": "",
          "type": "string"
        }
      ],
      "payable": false,
      "stateMutability": "view",
      "type": "function"
    },
    {
      "constant": false,
      "inputs": [
        {
          "name": "_spender",
          "type": "address"
        },
        {
          "name": "_value",
          "type": "uint256"
        }
      ],
      "name": "approve",
      "outputs": [
        {
          "name": "",
          "type": "bool"
        }
      ],
      "payable": false,
      "stateMutability": "nonpayable",
      "type": "function"
    },
    {
      "constant": true,
      "inputs": [
        {
          "name": "addr",
          "type": "address"
        },
        {
          "name": "roleName",
          "type": "string"
        }
      ],
      "name": "checkRole",
      "outputs": [],
      "payable": false,
      "stateMutability": "view",
      "type": "function"
    },
    {
      "constant": true,
      "inputs": [],
      "name": "totalSupply",
      "outputs": [
        {
          "name": "",
          "type": "uint256"
        }
      ],
      "payable": false,
      "stateMutability": "view",
      "type": "function"
    },
    {
      "constant": true,
      "inputs": [
        {
          "name": "addr",
          "type": "address"
        },
        {
          "name": "roleName",
          "type": "string"
        }
      ],
      "name": "hasRole",
      "outputs": [
        {
          "name": "",
          "type": "bool"
        }
      ],
      "payable": false,
      "stateMutability": "view",
      "type": "function"
    },
    {
      "constant": true,
      "inputs": [],
      "name": "fundsWallet",
      "outputs": [
        {
          "name": "",
          "type": "address"
        }
      ],
      "payable": false,
      "stateMutability": "view",
      "type": "function"
    },
    {
      "constant": true,
      "inputs": [],
      "name": "getTransactionAccts",
      "outputs": [
        {
          "name": "",
          "type": "address[]"
        }
      ],
      "payable": false,
      "stateMutability": "view",
      "type": "function"
    },
    {
      "constant": false,
      "inputs": [
        {
          "name": "_from",
          "type": "address"
        },
        {
          "name": "_to",
          "type": "address"
        },
        {
          "name": "_value",
          "type": "uint256"
        }
      ],
      "name": "transferFrom",
      "outputs": [
        {
          "name": "",
          "type": "bool"
        }
      ],
      "payable": false,
      "stateMutability": "nonpayable",
      "type": "function"
    },
    {
      "constant": false,
      "inputs": [
        {
          "name": "addrs",
          "type": "address[]"
        }
      ],
      "name": "removeAddressesFromWhitelist",
      "outputs": [
        {
          "name": "success",
          "type": "bool"
        }
      ],
      "payable": false,
      "stateMutability": "nonpayable",
      "type": "function"
    },
    {
      "constant": false,
      "inputs": [
        {
          "name": "addr",
          "type": "address"
        }
      ],
      "name": "removeAddressFromWhitelist",
      "outputs": [
        {
          "name": "success",
          "type": "bool"
        }
      ],
      "payable": false,
      "stateMutability": "nonpayable",
      "type": "function"
    },
    {
      "constant": true,
      "inputs": [],
      "name": "INITIAL_SUPPLY",
      "outputs": [
        {
          "name": "",
          "type": "uint256"
        }
      ],
      "payable": false,
      "stateMutability": "view",
      "type": "function"
    },
    {
      "constant": true,
      "inputs": [],
      "name": "decimals",
      "outputs": [
        {
          "name": "",
          "type": "uint8"
        }
      ],
      "payable": false,
      "stateMutability": "view",
      "type": "function"
    },
    {
      "constant": true,
      "inputs": [],
      "name": "version",
      "outputs": [
        {
          "name": "",
          "type": "string"
        }
      ],
      "payable": false,
      "stateMutability": "view",
      "type": "function"
    },
    {
      "constant": true,
      "inputs": [],
      "name": "unitsOneEthCanBuy",
      "outputs": [
        {
          "name": "",
          "type": "uint256"
        }
      ],
      "payable": false,
      "stateMutability": "view",
      "type": "function"
    },
    {
      "constant": true,
      "inputs": [
        {
          "name": "_owner",
          "type": "address"
        }
      ],
      "name": "balanceOf",
      "outputs": [
        {
          "name": "",
          "type": "uint256"
        }
      ],
      "payable": false,
      "stateMutability": "view",
      "type": "function"
    },
    {
      "constant": false,
      "inputs": [
        {
          "name": "addr",
          "type": "address"
        }
      ],
      "name": "addAddressToWhitelist",
      "outputs": [
        {
          "name": "success",
          "type": "bool"
        }
      ],
      "payable": false,
      "stateMutability": "nonpayable",
      "type": "function"
    },
    {
      "constant": true,
      "inputs": [
        {
          "name": "trx",
          "type": "address"
        }
      ],
      "name": "getTransaction",
      "outputs": [
        {
          "name": "",
          "type": "address"
        },
        {
          "name": "",
          "type": "uint256"
        }
      ],
      "payable": false,
      "stateMutability": "view",
      "type": "function"
    },
    {
      "constant": true,
      "inputs": [],
      "name": "owner",
      "outputs": [
        {
          "name": "",
          "type": "address"
        }
      ],
      "payable": false,
      "stateMutability": "view",
      "type": "function"
    },
    {
      "constant": true,
      "inputs": [],
      "name": "totalEthInWei",
      "outputs": [
        {
          "name": "",
          "type": "uint256"
        }
      ],
      "payable": false,
      "stateMutability": "view",
      "type": "function"
    },
    {
      "constant": true,
      "inputs": [],
      "name": "symbol",
      "outputs": [
        {
          "name": "",
          "type": "string"
        }
      ],
      "payable": false,
      "stateMutability": "view",
      "type": "function"
    },
    {
      "constant": true,
      "inputs": [
        {
          "name": "",
          "type": "address"
        }
      ],
      "name": "whitelist",
      "outputs": [
        {
          "name": "",
          "type": "bool"
        }
      ],
      "payable": false,
      "stateMutability": "view",
      "type": "function"
    },
    {
      "constant": true,
      "inputs": [
        {
          "name": "trx",
          "type": "address"
        }
      ],
      "name": "getTransactionAmout",
      "outputs": [
        {
          "name": "",
          "type": "uint256"
        }
      ],
      "payable": false,
      "stateMutability": "view",
      "type": "function"
    },
    {
      "constant": false,
      "inputs": [
        {
          "name": "_to",
          "type": "address"
        },
        {
          "name": "_value",
          "type": "uint256"
        }
      ],
      "name": "transfer",
      "outputs": [
        {
          "name": "",
          "type": "bool"
        }
      ],
      "payable": false,
      "stateMutability": "nonpayable",
      "type": "function"
    },
    {
      "constant": false,
      "inputs": [
        {
          "name": "_address",
          "type": "address"
        },
        {
          "name": "_value",
          "type": "uint256"
        }
      ],
      "name": "setTransaction",
      "outputs": [],
      "payable": false,
      "stateMutability": "nonpayable",
      "type": "function"
    },
    {
      "constant": true,
      "inputs": [
        {
          "name": "_owner",
          "type": "address"
        },
        {
          "name": "_spender",
          "type": "address"
        }
      ],
      "name": "allowance",
      "outputs": [
        {
          "name": "",
          "type": "uint256"
        }
      ],
      "payable": false,
      "stateMutability": "view",
      "type": "function"
    },
    {
      "constant": false,
      "inputs": [
        {
          "name": "addrs",
          "type": "address[]"
        }
      ],
      "name": "addAddressesToWhitelist",
      "outputs": [
        {
          "name": "success",
          "type": "bool"
        }
      ],
      "payable": false,
      "stateMutability": "nonpayable",
      "type": "function"
    },
    {
      "constant": false,
      "inputs": [
        {
          "name": "newOwner",
          "type": "address"
        }
      ],
      "name": "transferOwnership",
      "outputs": [],
      "payable": false,
      "stateMutability": "nonpayable",
      "type": "function"
    },
    {
      "constant": true,
      "inputs": [
        {
          "name": "",
          "type": "uint256"
        }
      ],
      "name": "transactionAccts",
      "outputs": [
        {
          "name": "",
          "type": "address"
        }
      ],
      "payable": false,
      "stateMutability": "view",
      "type": "function"
    },
    {
      "constant": true,
      "inputs": [],
      "name": "countTransactions",
      "outputs": [
        {
          "name": "",
          "type": "uint256"
        }
      ],
      "payable": false,
      "stateMutability": "view",
      "type": "function"
    },
    {
      "constant": true,
      "inputs": [],
      "name": "trxLength",
      "outputs": [
        {
          "name": "",
          "type": "uint256"
        }
      ],
      "payable": false,
      "stateMutability": "view",
      "type": "function"
    },
    {
      "inputs": [],
      "payable": false,
      "stateMutability": "nonpayable",
      "type": "constructor"
    },
    {
      "payable": true,
      "stateMutability": "payable",
      "type": "fallback"
    },
    {
      "anonymous": false,
      "inputs": [
        {
          "indexed": false,
          "name": "_deactivationTime",
          "type": "uint256"
        }
      ],
      "name": "Deactivate",
      "type": "event"
    },
    {
      "anonymous": false,
      "inputs": [
        {
          "indexed": false,
          "name": "_reactivationTime",
          "type": "uint256"
        }
      ],
      "name": "Reactivate",
      "type": "event"
    },
    {
      "anonymous": false,
      "inputs": [
        {
          "indexed": false,
          "name": "addr",
          "type": "address"
        },
        {
          "indexed": false,
          "name": "roleName",
          "type": "string"
        }
      ],
      "name": "RoleAdded",
      "type": "event"
    },
    {
      "anonymous": false,
      "inputs": [
        {
          "indexed": false,
          "name": "addr",
          "type": "address"
        },
        {
          "indexed": false,
          "name": "roleName",
          "type": "string"
        }
      ],
      "name": "RoleRemoved",
      "type": "event"
    },
    {
      "anonymous": false,
      "inputs": [
        {
          "indexed": false,
          "name": "addr",
          "type": "address"
        }
      ],
      "name": "WhitelistedAddressAdded",
      "type": "event"
    },
    {
      "anonymous": false,
      "inputs": [
        {
          "indexed": false,
          "name": "addr",
          "type": "address"
        }
      ],
      "name": "WhitelistedAddressRemoved",
      "type": "event"
    },
    {
      "anonymous": false,
      "inputs": [
        {
          "indexed": true,
          "name": "previousOwner",
          "type": "address"
        },
        {
          "indexed": true,
          "name": "newOwner",
          "type": "address"
        }
      ],
      "name": "OwnershipTransferred",
      "type": "event"
    },
    {
      "anonymous": false,
      "inputs": [
        {
          "indexed": true,
          "name": "owner",
          "type": "address"
        },
        {
          "indexed": true,
          "name": "spender",
          "type": "address"
        },
        {
          "indexed": false,
          "name": "value",
          "type": "uint256"
        }
      ],
      "name": "Approval",
      "type": "event"
    },
    {
      "anonymous": false,
      "inputs": [
        {
          "indexed": true,
          "name": "from",
          "type": "address"
        },
        {
          "indexed": true,
          "name": "to",
          "type": "address"
        },
        {
          "indexed": false,
          "name": "value",
          "type": "uint256"
        }
      ],
      "name": "Transfer",
      "type": "event"
    },
    {
      "constant": false,
      "inputs": [
        {
          "name": "newManagerAddress",
          "type": "address"
        }
      ],
      "name": "addToWhiteList",
      "outputs": [
        {
          "name": "",
          "type": "bool"
        }
      ],
      "payable": false,
      "stateMutability": "nonpayable",
      "type": "function"
    },
    {
      "constant": false,
      "inputs": [
        {
          "name": "managerAddress",
          "type": "address"
        }
      ],
      "name": "removeFromWhiteList",
      "outputs": [
        {
          "name": "",
          "type": "bool"
        }
      ],
      "payable": false,
      "stateMutability": "nonpayable",
      "type": "function"
    },
    {
      "constant": true,
      "inputs": [
        {
          "name": "addressToCheck",
          "type": "address"
        }
      ],
      "name": "confirmWhiteListStatus",
      "outputs": [
        {
          "name": "",
          "type": "bool"
        }
      ],
      "payable": false,
      "stateMutability": "view",
      "type": "function"
    },
    {
      "constant": false,
      "inputs": [
        {
          "name": "_senders",
          "type": "address[]"
        },
        {
          "name": "_receivers",
          "type": "address[]"
        },
        {
          "name": "_amounts",
          "type": "uint256[]"
        }
      ],
      "name": "bulkTransfer",
      "outputs": [],
      "payable": false,
      "stateMutability": "nonpayable",
      "type": "function"
    },
    {
      "constant": false,
      "inputs": [
        {
          "name": "newWallet",
          "type": "address"
        }
      ],
      "name": "updateFundsWallet",
      "outputs": [],
      "payable": false,
      "stateMutability": "nonpayable",
      "type": "function"
    },
    {
      "constant": false,
      "inputs": [],
      "name": "deactivate",
      "outputs": [],
      "payable": false,
      "stateMutability": "nonpayable",
      "type": "function"
    },
    {
      "constant": false,
      "inputs": [],
      "name": "reactivate",
      "outputs": [],
      "payable": false,
      "stateMutability": "nonpayable",
      "type": "function"
    },
    {
      "constant": false,
      "inputs": [
        {
          "name": "_spender",
          "type": "address"
        },
        {
          "name": "_value",
          "type": "uint256"
        },
        {
          "name": "_extraData",
          "type": "bytes"
        }
      ],
      "name": "approveAndCall",
      "outputs": [
        {
          "name": "success",
          "type": "bool"
        }
      ],
      "payable": false,
      "stateMutability": "nonpayable",
      "type": "function"
    }
  ],
  "bytecode": "0x60806040526040805190810160405280600481526020017f48312e3000000000000000000000000000000000000000000000000000000000815250600c908051906020019062000051929190620003d4565b506000601160006101000a81548160ff0219169083151502179055503480156200007a57600080fd5b5033600560006101000a81548173ffffffffffffffffffffffffffffffffffffffff021916908373ffffffffffffffffffffffffffffffffffffffff1602179055506a52b7d2dcc80cd2e4000000600080600560009054906101000a900473ffffffffffffffffffffffffffffffffffffffff1673ffffffffffffffffffffffffffffffffffffffff1673ffffffffffffffffffffffffffffffffffffffff168152602001908152602001600020819055506a52b7d2dcc80cd2e40000006001819055506040805190810160405280600781526020017f416c654b6f696e00000000000000000000000000000000000000000000000000815250600990805190602001906200018b929190620003d4565b506012600a60006101000a81548160ff021916908360ff1602179055506040805190810160405280600481526020017f414c4b5300000000000000000000000000000000000000000000000000000000815250600b9080519060200190620001f5929190620003d4565b5060006010819055506103e8600d8190555033600f60006101000a81548173ffffffffffffffffffffffffffffffffffffffff021916908373ffffffffffffffffffffffffffffffffffffffff1602179055506001601160006101000a81548160ff0219169083151502179055506200027d3362000284640100000000026401000000009004565b5062000483565b60008060011515601160009054906101000a900460ff161515141515620002aa57600080fd5b60009050600860008473ffffffffffffffffffffffffffffffffffffffff1673ffffffffffffffffffffffffffffffffffffffff16815260200190815260200160002060009054906101000a900460ff161515620003ca576001600860008573ffffffffffffffffffffffffffffffffffffffff1673ffffffffffffffffffffffffffffffffffffffff16815260200190815260200160002060006101000a81548160ff021916908315150217905550600190507fd1bba68c128cc3f427e5831b3c6f99f480b6efa6b9e80c757768f6124158cc3f83604051808273ffffffffffffffffffffffffffffffffffffffff1673ffffffffffffffffffffffffffffffffffffffff16815260200191505060405180910390a1809150620003ce565b8091505b50919050565b828054600181600116156101000203166002900490600052602060002090601f016020900481019282601f106200041757805160ff191683800117855562000448565b8280016001018555821562000448579182015b82811115620004475782518255916020019190600101906200042a565b5b5090506200045791906200045b565b5090565b6200048091905b808211156200047c57600081600090555060010162000462565b5090565b90565b61304680620004936000396000f3006080604052600436106101e3576000357c0100000000000000000000000000000000000000000000000000000000900463ffffffff16806301bf6648146105a057806302fb0c5e146105fb57806306fdde031461062a578063095ea7b3146106ba5780630988ca8c1461071f578063164b4fbf146107a857806318160ddd146107eb578063217fe6c6146108165780632194f3a2146108b7578063224460f71461090e57806322d2678e1461096957806323b872dd146109d557806324953eaa14610a5a578063286dd3f514610ad85780632ff2e9dc14610b33578063313ce56714610b5e57806347ee039414610b8f57806351b42b0014610bea57806354fd4d5014610c0157806365f2bc2e14610c9157806370a0823114610cbc5780637b9417c814610d135780637bb8637914610d6e5780638da5cb5b14610df8578063933ba41314610e4f57806395d89b4114610e7a5780639b19251a14610f0a578063a3d52b7114610f65578063a9059cbb14610fbc578063c975a2e314611021578063cae9ca511461106e578063d18611d614611119578063dd62ed3e14611130578063e2ec6ec3146111a7578063e980945614611225578063f2fde38b14611311578063f5db6f4014611354578063f81fc230146113c1578063fdaa6f10146113ec575b600060011515601160009054906101000a900460ff1615151480610249575060011515610245336040805190810160405280600581526020017f61646d696e000000000000000000000000000000000000000000000000000000815250611417565b1515145b806102a4575060011515600860003373ffffffffffffffffffffffffffffffffffffffff1673ffffffffffffffffffffffffffffffffffffffff16815260200190815260200160002060009054906101000a900460ff161515145b15156102af57600080fd5b6000341115156102be57600080fd5b34600e5401600e81905550600d543402905080600080600f60009054906101000a900473ffffffffffffffffffffffffffffffffffffffff1673ffffffffffffffffffffffffffffffffffffffff1673ffffffffffffffffffffffffffffffffffffffff168152602001908152602001600020541015151561033f57600080fd5b80600080600f60009054906101000a900473ffffffffffffffffffffffffffffffffffffffff1673ffffffffffffffffffffffffffffffffffffffff1673ffffffffffffffffffffffffffffffffffffffff1681526020019081526020016000205403600080600f60009054906101000a900473ffffffffffffffffffffffffffffffffffffffff1673ffffffffffffffffffffffffffffffffffffffff1673ffffffffffffffffffffffffffffffffffffffff16815260200190815260200160002081905550806000803373ffffffffffffffffffffffffffffffffffffffff1673ffffffffffffffffffffffffffffffffffffffff16815260200190815260200160002054016000803373ffffffffffffffffffffffffffffffffffffffff1673ffffffffffffffffffffffffffffffffffffffff16815260200190815260200160002081905550600560009054906101000a900473ffffffffffffffffffffffffffffffffffffffff1673ffffffffffffffffffffffffffffffffffffffff16600f60009054906101000a900473ffffffffffffffffffffffffffffffffffffffff1673ffffffffffffffffffffffffffffffffffffffff167fddf252ad1be2c89b69c2b068fc378daa952ba7f163c4a11628f55a4df523b3ef6001546040518082815260200191505060405180910390a3600f60009054906101000a900473ffffffffffffffffffffffffffffffffffffffff1673ffffffffffffffffffffffffffffffffffffffff166108fc349081150290604051600060405180830381858888f1935050505015801561059c573d6000803e3d6000fd5b5050005b3480156105ac57600080fd5b506105e1600480360381019080803573ffffffffffffffffffffffffffffffffffffffff16906020019092919050505061149e565b604051808215151515815260200191505060405180910390f35b34801561060757600080fd5b506106106115e2565b604051808215151515815260200191505060405180910390f35b34801561063657600080fd5b5061063f6115f5565b6040518080602001828103825283818151815260200191508051906020019080838360005b8381101561067f578082015181840152602081019050610664565b50505050905090810190601f1680156106ac5780820380516001836020036101000a031916815260200191505b509250505060405180910390f35b3480156106c657600080fd5b50610705600480360381019080803573ffffffffffffffffffffffffffffffffffffffff16906020019092919080359060200190929190505050611693565b604051808215151515815260200191505060405180910390f35b34801561072b57600080fd5b506107a6600480360381019080803573ffffffffffffffffffffffffffffffffffffffff169060200190929190803590602001908201803590602001908080601f0160208091040260200160405190810160405280939291908181526020018383808284378201915050505050509192919290505050611785565b005b3480156107b457600080fd5b506107e9600480360381019080803573ffffffffffffffffffffffffffffffffffffffff169060200190929190505050611806565b005b3480156107f757600080fd5b50610800611854565b6040518082815260200191505060405180910390f35b34801561082257600080fd5b5061089d600480360381019080803573ffffffffffffffffffffffffffffffffffffffff169060200190929190803590602001908201803590602001908080601f0160208091040260200160405190810160405280939291908181526020018383808284378201915050505050509192919290505050611417565b604051808215151515815260200191505060405180910390f35b3480156108c357600080fd5b506108cc61185e565b604051808273ffffffffffffffffffffffffffffffffffffffff1673ffffffffffffffffffffffffffffffffffffffff16815260200191505060405180910390f35b34801561091a57600080fd5b5061094f600480360381019080803573ffffffffffffffffffffffffffffffffffffffff169060200190929190505050611884565b604051808215151515815260200191505060405180910390f35b34801561097557600080fd5b5061097e6118fc565b6040518080602001828103825283818151815260200191508051906020019060200280838360005b838110156109c15780820151818401526020810190506109a6565b505050509050019250505060405180910390f35b3480156109e157600080fd5b50610a40600480360381019080803573ffffffffffffffffffffffffffffffffffffffff169060200190929190803573ffffffffffffffffffffffffffffffffffffffff1690602001909291908035906020019092919050505061198a565b604051808215151515815260200191505060405180910390f35b348015610a6657600080fd5b50610abe60048036038101908080359060200190820180359060200190808060200260200160405190810160405280939291908181526020018383602002808284378201915050505050509192919290505050611d61565b604051808215151515815260200191505060405180910390f35b348015610ae457600080fd5b50610b19600480360381019080803573ffffffffffffffffffffffffffffffffffffffff169060200190929190505050611e0b565b604051808215151515815260200191505060405180910390f35b348015610b3f57600080fd5b50610b48611f80565b6040518082815260200191505060405180910390f35b348015610b6a57600080fd5b50610b73611f8f565b604051808260ff1660ff16815260200191505060405180910390f35b348015610b9b57600080fd5b50610bd0600480360381019080803573ffffffffffffffffffffffffffffffffffffffff169060200190929190505050611fa2565b604051808215151515815260200191505060405180910390f35b348015610bf657600080fd5b50610bff6120ef565b005b348015610c0d57600080fd5b50610c16612143565b6040518080602001828103825283818151815260200191508051906020019080838360005b83811015610c56578082015181840152602081019050610c3b565b50505050905090810190601f168015610c835780820380516001836020036101000a031916815260200191505b509250505060405180910390f35b348015610c9d57600080fd5b50610ca66121e1565b6040518082815260200191505060405180910390f35b348015610cc857600080fd5b50610cfd600480360381019080803573ffffffffffffffffffffffffffffffffffffffff1690602001909291905050506121e7565b6040518082815260200191505060405180910390f35b348015610d1f57600080fd5b50610d54600480360381019080803573ffffffffffffffffffffffffffffffffffffffff16906020019092919050505061222f565b604051808215151515815260200191505060405180910390f35b348015610d7a57600080fd5b50610daf600480360381019080803573ffffffffffffffffffffffffffffffffffffffff1690602001909291905050506123a5565b604051808373ffffffffffffffffffffffffffffffffffffffff1673ffffffffffffffffffffffffffffffffffffffff1681526020018281526020019250505060405180910390f35b348015610e0457600080fd5b50610e0d612457565b604051808273ffffffffffffffffffffffffffffffffffffffff1673ffffffffffffffffffffffffffffffffffffffff16815260200191505060405180910390f35b348015610e5b57600080fd5b50610e6461247d565b6040518082815260200191505060405180910390f35b348015610e8657600080fd5b50610e8f612483565b6040518080602001828103825283818151815260200191508051906020019080838360005b83811015610ecf578082015181840152602081019050610eb4565b50505050905090810190601f168015610efc5780820380516001836020036101000a031916815260200191505b509250505060405180910390f35b348015610f1657600080fd5b50610f4b600480360381019080803573ffffffffffffffffffffffffffffffffffffffff169060200190929190505050612521565b604051808215151515815260200191505060405180910390f35b348015610f7157600080fd5b50610fa6600480360381019080803573ffffffffffffffffffffffffffffffffffffffff169060200190929190505050612541565b6040518082815260200191505060405180910390f35b348015610fc857600080fd5b50611007600480360381019080803573ffffffffffffffffffffffffffffffffffffffff1690602001909291908035906020019092919050505061258d565b604051808215151515815260200191505060405180910390f35b34801561102d57600080fd5b5061106c600480360381019080803573ffffffffffffffffffffffffffffffffffffffff169060200190929190803590602001909291905050506127b6565b005b34801561107a57600080fd5b506110ff600480360381019080803573ffffffffffffffffffffffffffffffffffffffff16906020019092919080359060200190929190803590602001908201803590602001908080601f01602080910402602001604051908101604052809392919081815260200183838082843782019150505050505091929192905050506128b3565b604051808215151515815260200191505060405180910390f35b34801561112557600080fd5b5061112e612b72565b005b34801561113c57600080fd5b50611191600480360381019080803573ffffffffffffffffffffffffffffffffffffffff169060200190929190803573ffffffffffffffffffffffffffffffffffffffff169060200190929190505050612bc6565b6040518082815260200191505060405180910390f35b3480156111b357600080fd5b5061120b60048036038101908080359060200190820180359060200190808060200260200160405190810160405280939291908181526020018383602002808284378201915050505050509192919290505050612c4d565b604051808215151515815260200191505060405180910390f35b34801561123157600080fd5b5061130f600480360381019080803590602001908201803590602001908080602002602001604051908101604052809392919081815260200183836020028082843782019150505050505091929192908035906020019082018035906020019080806020026020016040519081016040528093929190818152602001838360200280828437820191505050505050919291929080359060200190820180359060200190808060200260200160405190810160405280939291908181526020018383602002808284378201915050505050509192919290505050612cf7565b005b34801561131d57600080fd5b50611352600480360381019080803573ffffffffffffffffffffffffffffffffffffffff169060200190929190505050612dca565b005b34801561136057600080fd5b5061137f60048036038101908080359060200190929190505050612f22565b604051808273ffffffffffffffffffffffffffffffffffffffff1673ffffffffffffffffffffffffffffffffffffffff16815260200191505060405180910390f35b3480156113cd57600080fd5b506113d6612f60565b6040518082815260200191505060405180910390f35b3480156113f857600080fd5b50611401612f6d565b6040518082815260200191505060405180910390f35b6000611496836007846040518082805190602001908083835b6020831015156114555780518252602082019150602081019050602083039250611430565b6001836020036101000a0380198251168184511680821785525050505050509050019150509081526020016040518091039020612f7390919063ffffffff16565b905092915050565b600060011515601160009054906101000a900460ff1615151415156114c257600080fd5b600860008373ffffffffffffffffffffffffffffffffffffffff1673ffffffffffffffffffffffffffffffffffffffff16815260200190815260200160002060009054906101000a900460ff16156115d8576000600860008473ffffffffffffffffffffffffffffffffffffffff1673ffffffffffffffffffffffffffffffffffffffff16815260200190815260200160002060006101000a81548160ff0219169083151502179055507ff1abf01a1043b7c244d128e8595cf0c1d10743b022b03a02dffd8ca3bf729f5a82604051808273ffffffffffffffffffffffffffffffffffffffff1673ffffffffffffffffffffffffffffffffffffffff16815260200191505060405180910390a1600190506115dd565b600090505b919050565b601160009054906101000a900460ff1681565b60098054600181600116156101000203166002900480601f01602080910402602001604051908101604052809291908181526020018280546001816001161561010002031660029004801561168b5780601f106116605761010080835404028352916020019161168b565b820191906000526020600020905b81548152906001019060200180831161166e57829003601f168201915b505050505081565b600081600460003373ffffffffffffffffffffffffffffffffffffffff1673ffffffffffffffffffffffffffffffffffffffff16815260200190815260200160002060008573ffffffffffffffffffffffffffffffffffffffff1673ffffffffffffffffffffffffffffffffffffffff168152602001908152602001600020819055508273ffffffffffffffffffffffffffffffffffffffff163373ffffffffffffffffffffffffffffffffffffffff167f8c5be1e5ebec7d5bd14f71427d1e84f3dd0314c0f7b2291e5b200ac8c7c3b925846040518082815260200191505060405180910390a36001905092915050565b611802826007836040518082805190602001908083835b6020831015156117c1578051825260208201915060208101905060208303925061179c565b6001836020036101000a0380198251168184511680821785525050505050509050019150509081526020016040518091039020612fcc90919063ffffffff16565b5050565b61180f81611fa2565b5080600f60006101000a81548173ffffffffffffffffffffffffffffffffffffffff021916908373ffffffffffffffffffffffffffffffffffffffff16021790555050565b6000600154905090565b600f60009054906101000a900473ffffffffffffffffffffffffffffffffffffffff1681565b600060011515601160009054906101000a900460ff1615151415156118a857600080fd5b600860008373ffffffffffffffffffffffffffffffffffffffff1673ffffffffffffffffffffffffffffffffffffffff16815260200190815260200160002060009054906101000a900460ff169050919050565b6060600380548060200260200160405190810160405280929190818152602001828054801561198057602002820191906000526020600020905b8160009054906101000a900473ffffffffffffffffffffffffffffffffffffffff1673ffffffffffffffffffffffffffffffffffffffff1681526020019060010190808311611936575b5050505050905090565b60008073ffffffffffffffffffffffffffffffffffffffff168373ffffffffffffffffffffffffffffffffffffffff16141515156119c757600080fd5b6000808573ffffffffffffffffffffffffffffffffffffffff1673ffffffffffffffffffffffffffffffffffffffff168152602001908152602001600020548211151515611a1457600080fd5b600460008573ffffffffffffffffffffffffffffffffffffffff1673ffffffffffffffffffffffffffffffffffffffff16815260200190815260200160002060003373ffffffffffffffffffffffffffffffffffffffff1673ffffffffffffffffffffffffffffffffffffffff168152602001908152602001600020548211151515611a9f57600080fd5b6000821115611d5557611af9826000808773ffffffffffffffffffffffffffffffffffffffff1673ffffffffffffffffffffffffffffffffffffffff16815260200190815260200160002054612fe590919063ffffffff16565b6000808673ffffffffffffffffffffffffffffffffffffffff1673ffffffffffffffffffffffffffffffffffffffff16815260200190815260200160002081905550611b8c826000808673ffffffffffffffffffffffffffffffffffffffff1673ffffffffffffffffffffffffffffffffffffffff16815260200190815260200160002054612ffe90919063ffffffff16565b6000808573ffffffffffffffffffffffffffffffffffffffff1673ffffffffffffffffffffffffffffffffffffffff16815260200190815260200160002081905550611c5d82600460008773ffffffffffffffffffffffffffffffffffffffff1673ffffffffffffffffffffffffffffffffffffffff16815260200190815260200160002060003373ffffffffffffffffffffffffffffffffffffffff1673ffffffffffffffffffffffffffffffffffffffff16815260200190815260200160002054612fe590919063ffffffff16565b600460008673ffffffffffffffffffffffffffffffffffffffff1673ffffffffffffffffffffffffffffffffffffffff16815260200190815260200160002060003373ffffffffffffffffffffffffffffffffffffffff1673ffffffffffffffffffffffffffffffffffffffff16815260200190815260200160002081905550611ce783836127b6565b8273ffffffffffffffffffffffffffffffffffffffff168473ffffffffffffffffffffffffffffffffffffffff167fddf252ad1be2c89b69c2b068fc378daa952ba7f163c4a11628f55a4df523b3ef846040518082815260200191505060405180910390a360019050611d5a565b600090505b9392505050565b600080600560009054906101000a900473ffffffffffffffffffffffffffffffffffffffff1673ffffffffffffffffffffffffffffffffffffffff163373ffffffffffffffffffffffffffffffffffffffff16141515611dc057600080fd5b600090505b8251811015611e0557611dee8382815181101515611ddf57fe5b90602001906020020151611e0b565b15611df857600191505b8080600101915050611dc5565b50919050565b6000600560009054906101000a900473ffffffffffffffffffffffffffffffffffffffff1673ffffffffffffffffffffffffffffffffffffffff163373ffffffffffffffffffffffffffffffffffffffff16141515611e6957600080fd5b600660008373ffffffffffffffffffffffffffffffffffffffff1673ffffffffffffffffffffffffffffffffffffffff16815260200190815260200160002060009054906101000a900460ff1615611f7b576000600660008473ffffffffffffffffffffffffffffffffffffffff1673ffffffffffffffffffffffffffffffffffffffff16815260200190815260200160002060006101000a81548160ff0219169083151502179055507ff1abf01a1043b7c244d128e8595cf0c1d10743b022b03a02dffd8ca3bf729f5a82604051808273ffffffffffffffffffffffffffffffffffffffff1673ffffffffffffffffffffffffffffffffffffffff16815260200191505060405180910390a1600190505b919050565b6a52b7d2dcc80cd2e400000081565b600a60009054906101000a900460ff1681565b60008060011515601160009054906101000a900460ff161515141515611fc757600080fd5b60009050600860008473ffffffffffffffffffffffffffffffffffffffff1673ffffffffffffffffffffffffffffffffffffffff16815260200190815260200160002060009054906101000a900460ff1615156120e5576001600860008573ffffffffffffffffffffffffffffffffffffffff1673ffffffffffffffffffffffffffffffffffffffff16815260200190815260200160002060006101000a81548160ff021916908315150217905550600190507fd1bba68c128cc3f427e5831b3c6f99f480b6efa6b9e80c757768f6124158cc3f83604051808273ffffffffffffffffffffffffffffffffffffffff1673ffffffffffffffffffffffffffffffffffffffff16815260200191505060405180910390a18091506120e9565b8091505b50919050565b6000601160006101000a81548160ff0219169083151502179055507f642028127038cd17804be50978266c980dbd2234656c49d7f9c43f15985cf0ad436040518082815260200191505060405180910390a1565b600c8054600181600116156101000203166002900480601f0160208091040260200160405190810160405280929190818152602001828054600181600116156101000203166002900480156121d95780601f106121ae576101008083540402835291602001916121d9565b820191906000526020600020905b8154815290600101906020018083116121bc57829003601f168201915b505050505081565b600d5481565b60008060008373ffffffffffffffffffffffffffffffffffffffff1673ffffffffffffffffffffffffffffffffffffffff168152602001908152602001600020549050919050565b6000600560009054906101000a900473ffffffffffffffffffffffffffffffffffffffff1673ffffffffffffffffffffffffffffffffffffffff163373ffffffffffffffffffffffffffffffffffffffff1614151561228d57600080fd5b600660008373ffffffffffffffffffffffffffffffffffffffff1673ffffffffffffffffffffffffffffffffffffffff16815260200190815260200160002060009054906101000a900460ff1615156123a0576001600660008473ffffffffffffffffffffffffffffffffffffffff1673ffffffffffffffffffffffffffffffffffffffff16815260200190815260200160002060006101000a81548160ff0219169083151502179055507fd1bba68c128cc3f427e5831b3c6f99f480b6efa6b9e80c757768f6124158cc3f82604051808273ffffffffffffffffffffffffffffffffffffffff1673ffffffffffffffffffffffffffffffffffffffff16815260200191505060405180910390a1600190505b919050565b600080600260008473ffffffffffffffffffffffffffffffffffffffff1673ffffffffffffffffffffffffffffffffffffffff16815260200190815260200160002060000160009054906101000a900473ffffffffffffffffffffffffffffffffffffffff16600260008573ffffffffffffffffffffffffffffffffffffffff1673ffffffffffffffffffffffffffffffffffffffff1681526020019081526020016000206001015491509150915091565b600560009054906101000a900473ffffffffffffffffffffffffffffffffffffffff1681565b600e5481565b600b8054600181600116156101000203166002900480601f0160208091040260200160405190810160405280929190818152602001828054600181600116156101000203166002900480156125195780601f106124ee57610100808354040283529160200191612519565b820191906000526020600020905b8154815290600101906020018083116124fc57829003601f168201915b505050505081565b60066020528060005260406000206000915054906101000a900460ff1681565b6000600260008373ffffffffffffffffffffffffffffffffffffffff1673ffffffffffffffffffffffffffffffffffffffff168152602001908152602001600020600101549050919050565b60008073ffffffffffffffffffffffffffffffffffffffff168373ffffffffffffffffffffffffffffffffffffffff16141515156125ca57600080fd5b6000803373ffffffffffffffffffffffffffffffffffffffff1673ffffffffffffffffffffffffffffffffffffffff16815260200190815260200160002054821115151561261757600080fd5b612668826000803373ffffffffffffffffffffffffffffffffffffffff1673ffffffffffffffffffffffffffffffffffffffff16815260200190815260200160002054612fe590919063ffffffff16565b6000803373ffffffffffffffffffffffffffffffffffffffff1673ffffffffffffffffffffffffffffffffffffffff168152602001908152602001600020819055506126fb826000808673ffffffffffffffffffffffffffffffffffffffff1673ffffffffffffffffffffffffffffffffffffffff16815260200190815260200160002054612ffe90919063ffffffff16565b6000808573ffffffffffffffffffffffffffffffffffffffff1673ffffffffffffffffffffffffffffffffffffffff168152602001908152602001600020819055508273ffffffffffffffffffffffffffffffffffffffff163373ffffffffffffffffffffffffffffffffffffffff167fddf252ad1be2c89b69c2b068fc378daa952ba7f163c4a11628f55a4df523b3ef846040518082815260200191505060405180910390a36127ac83836127b6565b6001905092915050565b6000600260008473ffffffffffffffffffffffffffffffffffffffff1673ffffffffffffffffffffffffffffffffffffffff1681526020019081526020016000209050828160000160006101000a81548173ffffffffffffffffffffffffffffffffffffffff021916908373ffffffffffffffffffffffffffffffffffffffff160217905550818160010181905550600160038490806001815401808255809150509060018203906000526020600020016000909192909190916101000a81548173ffffffffffffffffffffffffffffffffffffffff021916908373ffffffffffffffffffffffffffffffffffffffff1602179055505050505050565b600060011515601160009054906101000a900460ff1615151415156128d757600080fd5b82600460003373ffffffffffffffffffffffffffffffffffffffff1673ffffffffffffffffffffffffffffffffffffffff16815260200190815260200160002060008673ffffffffffffffffffffffffffffffffffffffff1673ffffffffffffffffffffffffffffffffffffffff168152602001908152602001600020819055508373ffffffffffffffffffffffffffffffffffffffff163373ffffffffffffffffffffffffffffffffffffffff167f8c5be1e5ebec7d5bd14f71427d1e84f3dd0314c0f7b2291e5b200ac8c7c3b925856040518082815260200191505060405180910390a38373ffffffffffffffffffffffffffffffffffffffff1660405180807f72656365697665417070726f76616c28616464726573732c75696e743235362c81526020017f616464726573732c627974657329000000000000000000000000000000000000815250602e01905060405180910390207c01000000000000000000000000000000000000000000000000000000009004338530866040518563ffffffff167c0100000000000000000000000000000000000000000000000000000000028152600401808573ffffffffffffffffffffffffffffffffffffffff1673ffffffffffffffffffffffffffffffffffffffff1681526020018481526020018373ffffffffffffffffffffffffffffffffffffffff1673ffffffffffffffffffffffffffffffffffffffff168152602001828051906020019080838360005b83811015612b16578082015181840152602081019050612afb565b50505050905090810190601f168015612b435780820380516001836020036101000a031916815260200191505b509450505050506000604051808303816000875af1925050501515612b6757600080fd5b600190509392505050565b6001601160006101000a81548160ff0219169083151502179055507fed8c6f0b340c8772978fb4f71f153f11b53b223b4116979c5f0ca9a5ba1d946c436040518082815260200191505060405180910390a1565b6000600460008473ffffffffffffffffffffffffffffffffffffffff1673ffffffffffffffffffffffffffffffffffffffff16815260200190815260200160002060008373ffffffffffffffffffffffffffffffffffffffff1673ffffffffffffffffffffffffffffffffffffffff16815260200190815260200160002054905092915050565b600080600560009054906101000a900473ffffffffffffffffffffffffffffffffffffffff1673ffffffffffffffffffffffffffffffffffffffff163373ffffffffffffffffffffffffffffffffffffffff16141515612cac57600080fd5b600090505b8251811015612cf157612cda8382815181101515612ccb57fe5b9060200190602002015161222f565b15612ce457600191505b8080600101915050612cb1565b50919050565b60008084519150600090505b81811015612dc357612d438482815181101515612d1c57fe5b906020019060200201518483815181101515612d3457fe5b90602001906020020151611693565b50612d7c8582815181101515612d5557fe5b906020019060200201518583815181101515612d6d57fe5b90602001906020020151612bc6565b50612db58582815181101515612d8e57fe5b906020019060200201518483815181101515612da657fe5b9060200190602002015161258d565b508080600101915050612d03565b5050505050565b600560009054906101000a900473ffffffffffffffffffffffffffffffffffffffff1673ffffffffffffffffffffffffffffffffffffffff163373ffffffffffffffffffffffffffffffffffffffff16141515612e2657600080fd5b600073ffffffffffffffffffffffffffffffffffffffff168173ffffffffffffffffffffffffffffffffffffffff1614151515612e6257600080fd5b8073ffffffffffffffffffffffffffffffffffffffff16600560009054906101000a900473ffffffffffffffffffffffffffffffffffffffff1673ffffffffffffffffffffffffffffffffffffffff167f8be0079c531659141344cd1fd0a4f28419497f9722a3daafe3b4186f6b6457e060405160405180910390a380600560006101000a81548173ffffffffffffffffffffffffffffffffffffffff021916908373ffffffffffffffffffffffffffffffffffffffff16021790555050565b600381815481101515612f3157fe5b906000526020600020016000915054906101000a900473ffffffffffffffffffffffffffffffffffffffff1681565b6000600380549050905090565b60105481565b60008260000160008373ffffffffffffffffffffffffffffffffffffffff1673ffffffffffffffffffffffffffffffffffffffff16815260200190815260200160002060009054906101000a900460ff16905092915050565b612fd68282612f73565b1515612fe157600080fd5b5050565b6000828211151515612ff357fe5b818303905092915050565b6000818301905082811015151561301157fe5b809050929150505600a165627a7a72305820de9dead24d58cb97b3d867289ca175c329d8cc5593de37d5dc5e9fcad48693a00029",
  "source": "\npragma solidity ^0.4.22;\nimport \"../node_modules/openzeppelin-solidity/contracts/token/ERC20/ERC20.sol\";\nimport \"../node_modules/openzeppelin-solidity/contracts/math/SafeMath.sol\";\nimport \"../node_modules/openzeppelin-solidity/contracts/ownership/Whitelist.sol\";\nimport \"../node_modules/openzeppelin-solidity/contracts/ownership/rbac/RBAC.sol\";\n\n/**\n * @title Basic token\n * @dev Basic version of StandardToken, with no allowances.\n */\n\ncontract BasicToken is ERC20Basic {\n    using SafeMath for uint256;\n\n    mapping(address => uint256) balances;\n\n    uint256 _totalSupply;\n\n    /**\n    * @dev total number of tokens in existence\n    */\n    function totalSupply() public view returns (uint256) {\n        return _totalSupply;\n    }\n\n    struct TransactionData {\n        address trxAddress;\n        uint256 amount;\n    }\n\n    mapping (address => TransactionData) transactionsMap;\n    address[] public transactionAccts;\n\n    function setTransaction(address _address, uint _value) public {\n        TransactionData storage transactionInstance = transactionsMap[_address];\n\n        transactionInstance.trxAddress = _address;\n        transactionInstance.amount = _value;\n        \n        transactionAccts.push(_address) -1;\n    }\n\n    function getTransactionAccts() view public returns (address[]) {\n        return transactionAccts;\n    }\n\n    function getTransaction(address trx) view public returns (address, uint256) {\n        return (transactionsMap[trx].trxAddress, transactionsMap[trx].amount);\n    }\n\n    function getTransactionAmout(address trx) view public returns (uint256) {\n        return transactionsMap[trx].amount;\n    }\n\n    function countTransactions() view public returns (uint) {\n        return transactionAccts.length;\n    }\n    \n    /**\n    * @dev transfer token for a specified address\n    * @param _to The address to transfer to.\n    * @param _value The amount to be transferred.\n    */\n\n    function transfer(address _to, uint256 _value) public returns (bool) {\n        require(_to != address(0));\n        require(_value <= balances[msg.sender]);\n\n        balances[msg.sender] = balances[msg.sender].sub(_value);\n        balances[_to] = balances[_to].add(_value);\n        emit Transfer(msg.sender, _to, _value);\n        setTransaction(_to, _value);\n        return true;\n    }\n\n    /**\n    * @dev Gets the balance of the specified address.\n    * @param _owner The address to query the the balance of.\n    * @return An uint256 representing the amount owned by the passed address.\n    */\n    function balanceOf(address _owner) public view returns (uint256) {\n        return balances[_owner];\n    }\n\n}\n\n/**\n * @title Standard ERC20 token\n *\n * @dev Implementation of the basic standard token.\n * @dev https://github.com/ethereum/EIPs/issues/20\n * @dev Based on code by FirstBlood: https://github.com/Firstbloodio/token/blob/master/smart_contract/FirstBloodToken.sol\n */\ncontract StandardToken is ERC20, BasicToken {\n\n    mapping (address => mapping (address => uint256)) internal allowed;\n  \n  /**\n   * @dev Transfer tokens from one address to another\n   * @param _from address The address which you want to send tokens from\n   * @param _to address The address which you want to transfer to\n   * @param _value uint256 the amount of tokens to be transferred\n   */\n\n    function transferFrom(address _from, address _to, uint256 _value) public returns (bool) {\n        require(_to != address(0));\n        require(_value <= balances[_from]);\n        require(_value <= allowed[_from][msg.sender]);\n\n        if(_value > 0){\n            balances[_from] = balances[_from].sub(_value);\n            balances[_to] = balances[_to].add(_value);\n            allowed[_from][msg.sender] = allowed[_from][msg.sender].sub(_value);\n            setTransaction(_to, _value);\n            emit Transfer(_from, _to, _value);\n            return true;\n        } else {\n            return false;\n        }\n    }\n\n  /**\n   * @dev Approve the passed address to spend the specified amount of tokens on behalf of msg.sender.\n   *\n   * Beware that changing an allowance with this method brings the risk that someone may use both the old\n   * and the new allowance by unfortunate transaction ordering. One possible solution to mitigate this\n   * race condition is to first reduce the spender's allowance to 0 and set the desired value afterwards:\n   * https://github.com/ethereum/EIPs/issues/20#issuecomment-263524729\n   * @param _spender The address which will spend the funds.\n   * @param _value The amount of tokens to be spent.\n   */\n\n    function approve(address _spender, uint256 _value) public returns (bool) {\n        allowed[msg.sender][_spender] = _value;\n        emit Approval(msg.sender, _spender, _value);\n        return true;\n    }\n\n  /**\n   * @dev Function to check the amount of tokens that an owner allowed to a spender.\n   * @param _owner address The address which owns the funds.\n   * @param _spender address The address which will spend the funds.\n   * @return A uint256 specifying the amount of tokens still available for the spender.\n   */\n    function allowance(address _owner, address _spender) public view returns (uint256) {\n        return allowed[_owner][_spender];\n    }\n\n}\n\ncontract AleKoin is StandardToken, Whitelist, RBAC { \n\n    modifier isActive(){\n        require(active == true);\n        _;\n    }\n\n    modifier isAllowed(){\n        require(active == true || hasRole(msg.sender, \"admin\") == true || whitelist[msg.sender] == true);\n        _;\n    }\n\n    event Deactivate(uint _deactivationTime);\n    event Reactivate(uint _reactivationTime);\n\n    /* Public variables of the token */\n    mapping(address => bool) whitelist;\n    string public name;                   \n    uint8 public decimals;                \n    string public symbol;                 \n    string public version = \"H1.0\"; \n    uint256 public unitsOneEthCanBuy;     \n    uint256 public totalEthInWei;         \n    address public fundsWallet;   \n    uint256 public trxLength;\n    uint256 public constant INITIAL_SUPPLY = 100000000000000000000000000;   \n    bool public active = false;    \n\n    constructor() public {\n        balances[owner] = INITIAL_SUPPLY;           \n        _totalSupply = INITIAL_SUPPLY;                        \n        name = \"AleKoin\";                                   \n        decimals = 18;                                               \n        symbol = \"ALKS\";                  \n        trxLength = 0;                           \n        unitsOneEthCanBuy = 1000;                                     \n        fundsWallet = msg.sender;                                   \n        active = true;        \n        addToWhiteList(msg.sender);\n    }\n\n    function() payable public isAllowed {\n        require(msg.value > 0);\n\n        totalEthInWei = totalEthInWei + msg.value;\n        uint256 amount = msg.value * unitsOneEthCanBuy;\n\n        require(balances[fundsWallet] >= amount);\n\n        balances[fundsWallet] = balances[fundsWallet] - amount;\n        balances[msg.sender] = balances[msg.sender] + amount;\n\n        emit Transfer(fundsWallet, owner, _totalSupply);\n\n        fundsWallet.transfer(msg.value);                               \n    }\n\n    function addToWhiteList(address newManagerAddress) public isActive returns (bool) {\n        bool wasAdded = false;\n        if (!whitelist[newManagerAddress]) {\n            whitelist[newManagerAddress] = true;\n            wasAdded = true;\n            emit WhitelistedAddressAdded(newManagerAddress);\n            return wasAdded;\n         }\n\n        return wasAdded;\n    }\n\n    function removeFromWhiteList(address managerAddress) public isActive returns (bool) {\n        if (whitelist[managerAddress]) {\n            whitelist[managerAddress] = false;\n            emit WhitelistedAddressRemoved(managerAddress);\n            return true;\n        }\n        return false; \n    }\n\n    function confirmWhiteListStatus(address addressToCheck) view isActive returns (bool){\n        return whitelist[addressToCheck];\n    }\n\n    function bulkTransfer (address[] _senders, address[] _receivers, uint[] _amounts) public {\n        uint length = _senders.length;\n        \n        for(uint i = 0 ; i < length ; i++){\n            approve(_receivers[i], _amounts[i]);\n            allowance(_senders[i],_receivers[i]);\n            transfer(_senders[i], _amounts[i]); \n        }\n    }\n\n    function updateFundsWallet(address newWallet) public {\n        addToWhiteList(newWallet);\n        fundsWallet = newWallet;\n    }\n\n    function deactivate() public {\n        active = false;\n        emit Deactivate(block.number);\n    }\n\n    function reactivate() public {\n        active = true;\n        emit Reactivate(block.number);\n    }\n\n    /* Approves and then calls the receiving contract */\n    function approveAndCall(address _spender, uint256 _value, bytes _extraData) public isActive returns (bool success) {\n        allowed[msg.sender][_spender] = _value;\n        emit Approval(msg.sender, _spender, _value);\n        if (!_spender.call(bytes4(bytes32(keccak256(\"receiveApproval(address,uint256,address,bytes)\"))), msg.sender, _value, this, _extraData)) {revert();}\n        return true;\n    }\n}",
  "sourcePath": "/Users/al/Desktop/alekoin/contracts/AleKoin.sol",
  "compiler": {
    "name": "solc",
    "version": "0.4.23+commit.124ca40d.Emscripten.clang"
  },
  "schemaVersion": "2.0.0",
  "updatedAt": "2018-05-21T18:14:41.888Z"
}