{
  "contractName": "BasicToken",
  "abi": [
    {
      "constant": true,
      "inputs": [
        {
          "name": "",
          "type": "uint256"
        }
      ],
      "name": "transactionAccts",
      "outputs": [
        {
          "name": "",
          "type": "address"
        }
      ],
      "payable": false,
      "stateMutability": "view",
      "type": "function"
    },
    {
      "anonymous": false,
      "inputs": [
        {
          "indexed": true,
          "name": "from",
          "type": "address"
        },
        {
          "indexed": true,
          "name": "to",
          "type": "address"
        },
        {
          "indexed": false,
          "name": "value",
          "type": "uint256"
        }
      ],
      "name": "Transfer",
      "type": "event"
    },
    {
      "constant": true,
      "inputs": [],
      "name": "totalSupply",
      "outputs": [
        {
          "name": "",
          "type": "uint256"
        }
      ],
      "payable": false,
      "stateMutability": "view",
      "type": "function"
    },
    {
      "constant": false,
      "inputs": [
        {
          "name": "_address",
          "type": "address"
        },
        {
          "name": "_value",
          "type": "uint256"
        }
      ],
      "name": "setTransaction",
      "outputs": [],
      "payable": false,
      "stateMutability": "nonpayable",
      "type": "function"
    },
    {
      "constant": true,
      "inputs": [],
      "name": "getTransactionAccts",
      "outputs": [
        {
          "name": "",
          "type": "address[]"
        }
      ],
      "payable": false,
      "stateMutability": "view",
      "type": "function"
    },
    {
      "constant": true,
      "inputs": [
        {
          "name": "trx",
          "type": "address"
        }
      ],
      "name": "getTransaction",
      "outputs": [
        {
          "name": "",
          "type": "address"
        },
        {
          "name": "",
          "type": "uint256"
        }
      ],
      "payable": false,
      "stateMutability": "view",
      "type": "function"
    },
    {
      "constant": true,
      "inputs": [
        {
          "name": "trx",
          "type": "address"
        }
      ],
      "name": "getTransactionAmout",
      "outputs": [
        {
          "name": "",
          "type": "uint256"
        }
      ],
      "payable": false,
      "stateMutability": "view",
      "type": "function"
    },
    {
      "constant": true,
      "inputs": [],
      "name": "countTransactions",
      "outputs": [
        {
          "name": "",
          "type": "uint256"
        }
      ],
      "payable": false,
      "stateMutability": "view",
      "type": "function"
    },
    {
      "constant": false,
      "inputs": [
        {
          "name": "_to",
          "type": "address"
        },
        {
          "name": "_value",
          "type": "uint256"
        }
      ],
      "name": "transfer",
      "outputs": [
        {
          "name": "",
          "type": "bool"
        }
      ],
      "payable": false,
      "stateMutability": "nonpayable",
      "type": "function"
    },
    {
      "constant": true,
      "inputs": [
        {
          "name": "_owner",
          "type": "address"
        }
      ],
      "name": "balanceOf",
      "outputs": [
        {
          "name": "",
          "type": "uint256"
        }
      ],
      "payable": false,
      "stateMutability": "view",
      "type": "function"
    }
  ],
  "bytecode": "0x608060405234801561001057600080fd5b50610967806100206000396000f300608060405260043610610099576000357c0100000000000000000000000000000000000000000000000000000000900463ffffffff16806318160ddd1461009e57806322d2678e146100c957806370a08231146101355780637bb863791461018c578063a3d52b7114610216578063a9059cbb1461026d578063c975a2e3146102d2578063f5db6f401461031f578063f81fc2301461038c575b600080fd5b3480156100aa57600080fd5b506100b36103b7565b6040518082815260200191505060405180910390f35b3480156100d557600080fd5b506100de6103c1565b6040518080602001828103825283818151815260200191508051906020019060200280838360005b83811015610121578082015181840152602081019050610106565b505050509050019250505060405180910390f35b34801561014157600080fd5b50610176600480360381019080803573ffffffffffffffffffffffffffffffffffffffff16906020019092919050505061044f565b6040518082815260200191505060405180910390f35b34801561019857600080fd5b506101cd600480360381019080803573ffffffffffffffffffffffffffffffffffffffff169060200190929190505050610497565b604051808373ffffffffffffffffffffffffffffffffffffffff1673ffffffffffffffffffffffffffffffffffffffff1681526020018281526020019250505060405180910390f35b34801561022257600080fd5b50610257600480360381019080803573ffffffffffffffffffffffffffffffffffffffff169060200190929190505050610549565b6040518082815260200191505060405180910390f35b34801561027957600080fd5b506102b8600480360381019080803573ffffffffffffffffffffffffffffffffffffffff16906020019092919080359060200190929190505050610595565b604051808215151515815260200191505060405180910390f35b3480156102de57600080fd5b5061031d600480360381019080803573ffffffffffffffffffffffffffffffffffffffff169060200190929190803590602001909291905050506107be565b005b34801561032b57600080fd5b5061034a600480360381019080803590602001909291905050506108bb565b604051808273ffffffffffffffffffffffffffffffffffffffff1673ffffffffffffffffffffffffffffffffffffffff16815260200191505060405180910390f35b34801561039857600080fd5b506103a16108f9565b6040518082815260200191505060405180910390f35b6000600154905090565b6060600380548060200260200160405190810160405280929190818152602001828054801561044557602002820191906000526020600020905b8160009054906101000a900473ffffffffffffffffffffffffffffffffffffffff1673ffffffffffffffffffffffffffffffffffffffff16815260200190600101908083116103fb575b5050505050905090565b60008060008373ffffffffffffffffffffffffffffffffffffffff1673ffffffffffffffffffffffffffffffffffffffff168152602001908152602001600020549050919050565b600080600260008473ffffffffffffffffffffffffffffffffffffffff1673ffffffffffffffffffffffffffffffffffffffff16815260200190815260200160002060000160009054906101000a900473ffffffffffffffffffffffffffffffffffffffff16600260008573ffffffffffffffffffffffffffffffffffffffff1673ffffffffffffffffffffffffffffffffffffffff1681526020019081526020016000206001015491509150915091565b6000600260008373ffffffffffffffffffffffffffffffffffffffff1673ffffffffffffffffffffffffffffffffffffffff168152602001908152602001600020600101549050919050565b60008073ffffffffffffffffffffffffffffffffffffffff168373ffffffffffffffffffffffffffffffffffffffff16141515156105d257600080fd5b6000803373ffffffffffffffffffffffffffffffffffffffff1673ffffffffffffffffffffffffffffffffffffffff16815260200190815260200160002054821115151561061f57600080fd5b610670826000803373ffffffffffffffffffffffffffffffffffffffff1673ffffffffffffffffffffffffffffffffffffffff1681526020019081526020016000205461090690919063ffffffff16565b6000803373ffffffffffffffffffffffffffffffffffffffff1673ffffffffffffffffffffffffffffffffffffffff16815260200190815260200160002081905550610703826000808673ffffffffffffffffffffffffffffffffffffffff1673ffffffffffffffffffffffffffffffffffffffff1681526020019081526020016000205461091f90919063ffffffff16565b6000808573ffffffffffffffffffffffffffffffffffffffff1673ffffffffffffffffffffffffffffffffffffffff168152602001908152602001600020819055508273ffffffffffffffffffffffffffffffffffffffff163373ffffffffffffffffffffffffffffffffffffffff167fddf252ad1be2c89b69c2b068fc378daa952ba7f163c4a11628f55a4df523b3ef846040518082815260200191505060405180910390a36107b483836107be565b6001905092915050565b6000600260008473ffffffffffffffffffffffffffffffffffffffff1673ffffffffffffffffffffffffffffffffffffffff1681526020019081526020016000209050828160000160006101000a81548173ffffffffffffffffffffffffffffffffffffffff021916908373ffffffffffffffffffffffffffffffffffffffff160217905550818160010181905550600160038490806001815401808255809150509060018203906000526020600020016000909192909190916101000a81548173ffffffffffffffffffffffffffffffffffffffff021916908373ffffffffffffffffffffffffffffffffffffffff1602179055505050505050565b6003818154811015156108ca57fe5b906000526020600020016000915054906101000a900473ffffffffffffffffffffffffffffffffffffffff1681565b6000600380549050905090565b600082821115151561091457fe5b818303905092915050565b6000818301905082811015151561093257fe5b809050929150505600a165627a7a723058206a368e25226fdb5d981c4c23f44cd47ecf9bbd839e34b78624d58f482ffd48460029",
  "source": "\npragma solidity ^0.4.22;\nimport \"../node_modules/openzeppelin-solidity/contracts/token/ERC20/ERC20.sol\";\nimport \"../node_modules/openzeppelin-solidity/contracts/math/SafeMath.sol\";\nimport \"../node_modules/openzeppelin-solidity/contracts/ownership/Whitelist.sol\";\nimport \"../node_modules/openzeppelin-solidity/contracts/ownership/rbac/RBAC.sol\";\n\n/**\n * @title Basic token\n * @dev Basic version of StandardToken, with no allowances.\n */\n\ncontract BasicToken is ERC20Basic {\n    using SafeMath for uint256;\n\n    mapping(address => uint256) balances;\n\n    uint256 _totalSupply;\n\n    /**\n    * @dev total number of tokens in existence\n    */\n    function totalSupply() public view returns (uint256) {\n        return _totalSupply;\n    }\n\n    struct TransactionData {\n        address trxAddress;\n        uint256 amount;\n    }\n\n    mapping (address => TransactionData) transactionsMap;\n    address[] public transactionAccts;\n\n    function setTransaction(address _address, uint _value) public {\n        TransactionData storage transactionInstance = transactionsMap[_address];\n\n        transactionInstance.trxAddress = _address;\n        transactionInstance.amount = _value;\n        \n        transactionAccts.push(_address) -1;\n    }\n\n    function getTransactionAccts() view public returns (address[]) {\n        return transactionAccts;\n    }\n\n    function getTransaction(address trx) view public returns (address, uint256) {\n        return (transactionsMap[trx].trxAddress, transactionsMap[trx].amount);\n    }\n\n    function getTransactionAmout(address trx) view public returns (uint256) {\n        return transactionsMap[trx].amount;\n    }\n\n    function countTransactions() view public returns (uint) {\n        return transactionAccts.length;\n    }\n    \n    /**\n    * @dev transfer token for a specified address\n    * @param _to The address to transfer to.\n    * @param _value The amount to be transferred.\n    */\n\n    function transfer(address _to, uint256 _value) public returns (bool) {\n        require(_to != address(0));\n        require(_value <= balances[msg.sender]);\n\n        balances[msg.sender] = balances[msg.sender].sub(_value);\n        balances[_to] = balances[_to].add(_value);\n        emit Transfer(msg.sender, _to, _value);\n        setTransaction(_to, _value);\n        return true;\n    }\n\n    /**\n    * @dev Gets the balance of the specified address.\n    * @param _owner The address to query the the balance of.\n    * @return An uint256 representing the amount owned by the passed address.\n    */\n    function balanceOf(address _owner) public view returns (uint256) {\n        return balances[_owner];\n    }\n\n}\n\n/**\n * @title Standard ERC20 token\n *\n * @dev Implementation of the basic standard token.\n * @dev https://github.com/ethereum/EIPs/issues/20\n * @dev Based on code by FirstBlood: https://github.com/Firstbloodio/token/blob/master/smart_contract/FirstBloodToken.sol\n */\ncontract StandardToken is ERC20, BasicToken {\n\n    mapping (address => mapping (address => uint256)) internal allowed;\n  \n  /**\n   * @dev Transfer tokens from one address to another\n   * @param _from address The address which you want to send tokens from\n   * @param _to address The address which you want to transfer to\n   * @param _value uint256 the amount of tokens to be transferred\n   */\n\n    function transferFrom(address _from, address _to, uint256 _value) public returns (bool) {\n        require(_to != address(0));\n        require(_value <= balances[_from]);\n        require(_value <= allowed[_from][msg.sender]);\n\n        if(_value > 0){\n            balances[_from] = balances[_from].sub(_value);\n            balances[_to] = balances[_to].add(_value);\n            allowed[_from][msg.sender] = allowed[_from][msg.sender].sub(_value);\n            setTransaction(_to, _value);\n            emit Transfer(_from, _to, _value);\n            return true;\n        } else {\n            return false;\n        }\n    }\n\n  /**\n   * @dev Approve the passed address to spend the specified amount of tokens on behalf of msg.sender.\n   *\n   * Beware that changing an allowance with this method brings the risk that someone may use both the old\n   * and the new allowance by unfortunate transaction ordering. One possible solution to mitigate this\n   * race condition is to first reduce the spender's allowance to 0 and set the desired value afterwards:\n   * https://github.com/ethereum/EIPs/issues/20#issuecomment-263524729\n   * @param _spender The address which will spend the funds.\n   * @param _value The amount of tokens to be spent.\n   */\n\n    function approve(address _spender, uint256 _value) public returns (bool) {\n        allowed[msg.sender][_spender] = _value;\n        emit Approval(msg.sender, _spender, _value);\n        return true;\n    }\n\n  /**\n   * @dev Function to check the amount of tokens that an owner allowed to a spender.\n   * @param _owner address The address which owns the funds.\n   * @param _spender address The address which will spend the funds.\n   * @return A uint256 specifying the amount of tokens still available for the spender.\n   */\n    function allowance(address _owner, address _spender) public view returns (uint256) {\n        return allowed[_owner][_spender];\n    }\n\n}\n\ncontract AleKoin is StandardToken, Whitelist, RBAC { \n\n    modifier isActive(){\n        require(active == true);\n        _;\n    }\n\n    modifier isAllowed(){\n        require(active == true || hasRole(msg.sender, \"admin\") == true || whitelist[msg.sender] == true);\n        _;\n    }\n\n    event Deactivate(uint _deactivationTime);\n    event Reactivate(uint _reactivationTime);\n\n    /* Public variables of the token */\n    mapping(address => bool) whitelist;\n    string public name;                   \n    uint8 public decimals;                \n    string public symbol;                 \n    string public version = \"H1.0\"; \n    uint256 public unitsOneEthCanBuy;     \n    uint256 public totalEthInWei;         \n    address public fundsWallet;   \n    uint256 public trxLength;\n    uint256 public constant INITIAL_SUPPLY = 100000000000000000000000000;   \n    bool public active = false;    \n\n    constructor() public {\n        balances[owner] = INITIAL_SUPPLY;           \n        _totalSupply = INITIAL_SUPPLY;                        \n        name = \"AleKoin\";                                   \n        decimals = 18;                                               \n        symbol = \"ALKS\";                  \n        trxLength = 0;                           \n        unitsOneEthCanBuy = 1000;                                     \n        fundsWallet = msg.sender;                                   \n        active = true;        \n        addToWhiteList(msg.sender);\n    }\n\n    function() payable public isAllowed {\n        require(msg.value > 0);\n\n        totalEthInWei = totalEthInWei + msg.value;\n        uint256 amount = msg.value * unitsOneEthCanBuy;\n\n        require(balances[fundsWallet] >= amount);\n\n        balances[fundsWallet] = balances[fundsWallet] - amount;\n        balances[msg.sender] = balances[msg.sender] + amount;\n\n        emit Transfer(fundsWallet, owner, _totalSupply);\n\n        fundsWallet.transfer(msg.value);                               \n    }\n\n    function addToWhiteList(address newManagerAddress) public isActive returns (bool) {\n        bool wasAdded = false;\n        if (!whitelist[newManagerAddress]) {\n            whitelist[newManagerAddress] = true;\n            wasAdded = true;\n            emit WhitelistedAddressAdded(newManagerAddress);\n            return wasAdded;\n         }\n\n        return wasAdded;\n    }\n\n    function removeFromWhiteList(address managerAddress) public isActive returns (bool) {\n        if (whitelist[managerAddress]) {\n            whitelist[managerAddress] = false;\n            emit WhitelistedAddressRemoved(managerAddress);\n            return true;\n        }\n        return false; \n    }\n\n    function confirmWhiteListStatus(address addressToCheck) view isActive returns (bool){\n        return whitelist[addressToCheck];\n    }\n\n    function bulkTransfer (address[] _senders, address[] _receivers, uint[] _amounts) public {\n        uint length = _senders.length;\n        \n        for(uint i = 0 ; i < length ; i++){\n            approve(_receivers[i], _amounts[i]);\n            allowance(_senders[i],_receivers[i]);\n            transfer(_senders[i], _amounts[i]); \n        }\n    }\n\n    function updateFundsWallet(address newWallet) public {\n        addToWhiteList(newWallet);\n        fundsWallet = newWallet;\n    }\n\n    function deactivate() public {\n        active = false;\n        emit Deactivate(block.number);\n    }\n\n    function reactivate() public {\n        active = true;\n        emit Reactivate(block.number);\n    }\n\n    /* Approves and then calls the receiving contract */\n    function approveAndCall(address _spender, uint256 _value, bytes _extraData) public isActive returns (bool success) {\n        allowed[msg.sender][_spender] = _value;\n        emit Approval(msg.sender, _spender, _value);\n        if (!_spender.call(bytes4(bytes32(keccak256(\"receiveApproval(address,uint256,address,bytes)\"))), msg.sender, _value, this, _extraData)) {revert();}\n        return true;\n    }\n}",
  "sourcePath": "/Users/al/Desktop/alekoin/contracts/AleKoin.sol",
  "compiler": {
    "name": "solc",
    "version": "0.4.23+commit.124ca40d.Emscripten.clang"
  },
  "schemaVersion": "2.0.0",
  "updatedAt": "2018-05-21T18:14:41.868Z"
}